{
  "contractName": "AltBn128",
  "abi": [
    {
      "constant": true,
      "inputs": [],
      "name": "P",
      "outputs": [
        {
          "name": "",
          "type": "uint256"
        }
      ],
      "payable": false,
      "stateMutability": "view",
      "type": "function"
    },
    {
      "constant": true,
      "inputs": [],
      "name": "G1y",
      "outputs": [
        {
          "name": "",
          "type": "uint256"
        }
      ],
      "payable": false,
      "stateMutability": "view",
      "type": "function"
    },
    {
      "constant": true,
      "inputs": [],
      "name": "G1x",
      "outputs": [
        {
          "name": "",
          "type": "uint256"
        }
      ],
      "payable": false,
      "stateMutability": "view",
      "type": "function"
    },
    {
      "constant": true,
      "inputs": [],
      "name": "N",
      "outputs": [
        {
          "name": "",
          "type": "uint256"
        }
      ],
      "payable": false,
      "stateMutability": "view",
      "type": "function"
    },
    {
      "constant": true,
      "inputs": [],
      "name": "A",
      "outputs": [
        {
          "name": "",
          "type": "uint256"
        }
      ],
      "payable": false,
      "stateMutability": "view",
      "type": "function"
    },
    {
      "constant": true,
      "inputs": [
        {
          "name": "p0",
          "type": "uint256[2]"
        },
        {
          "name": "p1",
          "type": "uint256[2]"
        }
      ],
      "name": "ecAdd",
      "outputs": [
        {
          "name": "retP",
          "type": "uint256[2]"
        }
      ],
      "payable": false,
      "stateMutability": "view",
      "type": "function"
    },
    {
      "constant": true,
      "inputs": [
        {
          "name": "p",
          "type": "uint256[2]"
        },
        {
          "name": "s",
          "type": "uint256"
        }
      ],
      "name": "ecMul",
      "outputs": [
        {
          "name": "retP",
          "type": "uint256[2]"
        }
      ],
      "payable": false,
      "stateMutability": "view",
      "type": "function"
    },
    {
      "constant": true,
      "inputs": [
        {
          "name": "s",
          "type": "uint256"
        }
      ],
      "name": "ecMulG",
      "outputs": [
        {
          "name": "retP",
          "type": "uint256[2]"
        }
      ],
      "payable": false,
      "stateMutability": "view",
      "type": "function"
    },
    {
      "constant": true,
      "inputs": [
        {
          "name": "base",
          "type": "uint256"
        },
        {
          "name": "e",
          "type": "uint256"
        },
        {
          "name": "m",
          "type": "uint256"
        }
      ],
      "name": "powmod",
      "outputs": [
        {
          "name": "o",
          "type": "uint256"
        }
      ],
      "payable": false,
      "stateMutability": "view",
      "type": "function"
    },
    {
      "constant": true,
      "inputs": [
        {
          "name": "x",
          "type": "uint256"
        },
        {
          "name": "n",
          "type": "uint256"
        }
      ],
      "name": "addmodn",
      "outputs": [
        {
          "name": "",
          "type": "uint256"
        }
      ],
      "payable": false,
      "stateMutability": "pure",
      "type": "function"
    },
    {
      "constant": true,
      "inputs": [
        {
          "name": "x",
          "type": "uint256"
        }
      ],
      "name": "modn",
      "outputs": [
        {
          "name": "",
          "type": "uint256"
        }
      ],
      "payable": false,
      "stateMutability": "pure",
      "type": "function"
    },
    {
      "constant": true,
      "inputs": [
        {
          "name": "x",
          "type": "uint256"
        }
      ],
      "name": "modp",
      "outputs": [
        {
          "name": "",
          "type": "uint256"
        }
      ],
      "payable": false,
      "stateMutability": "pure",
      "type": "function"
    },
    {
      "constant": true,
      "inputs": [
        {
          "name": "x",
          "type": "uint256"
        },
        {
          "name": "y",
          "type": "uint256"
        }
      ],
      "name": "onCurve",
      "outputs": [
        {
          "name": "",
          "type": "bool"
        }
      ],
      "payable": false,
      "stateMutability": "pure",
      "type": "function"
    },
    {
      "constant": true,
      "inputs": [
        {
          "name": "beta",
          "type": "uint256"
        },
        {
          "name": "y",
          "type": "uint256"
        }
      ],
      "name": "onCurveBeta",
      "outputs": [
        {
          "name": "",
          "type": "bool"
        }
      ],
      "payable": false,
      "stateMutability": "pure",
      "type": "function"
    },
    {
      "constant": true,
      "inputs": [
        {
          "name": "x",
          "type": "uint256"
        }
      ],
      "name": "evalCurve",
      "outputs": [
        {
          "name": "",
          "type": "uint256"
        },
        {
          "name": "",
          "type": "uint256"
        }
      ],
      "payable": false,
      "stateMutability": "view",
      "type": "function"
    }
  ],
  "bytecode": "0x610a85610026600b82828239805160001a60731461001957fe5b30600052607381538281f3fe73000000000000000000000000000000000000000030146080604052600436106100ff5760003560e01c80638b8fbd92116100a1578063c690219b11610070578063c690219b146104cf578063c9e525df14610518578063e76ee24214610536578063f446c1d014610582576100ff565b80638b8fbd9214610393578063a1807b9c146103b1578063a867d0ca146103cf578063b93af8e0146104b1576100ff565b80634f06f279116100dd5780634f06f27914610206578063669d94481461024857806371de37241461029857806381dd69fe14610343576100ff565b8063171f304214610104578063309ef8321461014657806345c373181461019c575b600080fd5b6101306004803603602081101561011a57600080fd5b81019080803590602001909291905050506105a0565b6040518082815260200191505060405180910390f35b6101866004803603606081101561015c57600080fd5b810190808035906020019092919080359060200190929190803590602001909291905050506105d3565b6040518082815260200191505060405180910390f35b6101c8600480360360208110156101b257600080fd5b810190808035906020019092919050505061062a565b6040518082600260200280838360005b838110156101f35780820151818401526020810190506101d8565b5050505090500191505060405180910390f35b6102326004803603602081101561021c57600080fd5b8101908080359060200190929190505050610659565b6040518082815260200191505060405180910390f35b61027e6004803603604081101561025e57600080fd5b81019080803590602001909291908035906020019092919050505061068c565b604051808215151515815260200191505060405180910390f35b610305600480360360608110156102ae57600080fd5b8101908080604001906002806020026040519081016040528092919082600260200280828437600081840152601f19601f82011690508083019250505050505091929192908035906020019092919050505061072a565b6040518082600260200280838360005b83811015610330578082015181840152602081019050610315565b5050505090500191505060405180910390f35b6103796004803603604081101561035957600080fd5b810190808035906020019092919080359060200190929190505050610795565b604051808215151515815260200191505060405180910390f35b61039b6107cc565b6040518082815260200191505060405180910390f35b6103b96107f0565b6040518082815260200191505060405180910390f35b610473600480360360808110156103e557600080fd5b8101908080604001906002806020026040519081016040528092919082600260200280828437600081840152601f19601f820116905080830192505050505050919291929080604001906002806020026040519081016040528092919082600260200280828437600081840152601f19601f82011690508083019250505050505091929192905050506107f5565b6040518082600260200280838360005b8381101561049e578082015181840152602081019050610483565b5050505090500191505060405180910390f35b6104b9610888565b6040518082815260200191505060405180910390f35b6104fb600480360360208110156104e557600080fd5b810190808035906020019092919050505061088d565b604051808381526020018281526020019250505060405180910390f35b610520610976565b6040518082815260200191505060405180910390f35b61056c6004803603604081101561054c57600080fd5b81019080803590602001909291908035906020019092919050505061099a565b6040518082815260200191505060405180910390f35b61058a6109cf565b6040518082815260200191505060405180910390f35b60007f30644e72e131a029b85045b68181585d97816a916871ca8d3c208c16d87cfd4782816105cb57fe5b069050919050565b600060405160208152602080820152602060408201528460608201528360808201528260a082015260208160c08360056107d05a03fa80600081146106175761061c565b600080fd5b508151925050509392505050565b6106326109f3565b61065260405180604001604052806001815260200160028152508361072a565b9050919050565b60007f30644e72e131a029b85045b68181585d2833e84879b9709143e1f593f0000001828161068457fe5b069050919050565b6000807f30644e72e131a029b85045b68181585d97816a916871ca8d3c208c16d87cfd47806106b757fe5b84850990507f30644e72e131a029b85045b68181585d97816a916871ca8d3c208c16d87cfd47806106e457fe5b84820990507f30644e72e131a029b85045b68181585d97816a916871ca8d3c208c16d87cfd478061071157fe5b6003820890506107218184610795565b91505092915050565b6107326109f3565b61073a610a15565b60405180606001604052808560006002811061075257fe5b602002015181526020018560016002811061076957fe5b602002015181526020018481525090506040826060836007600019fa61078e57600080fd5b5092915050565b60007f30644e72e131a029b85045b68181585d97816a916871ca8d3c208c16d87cfd47806107bf57fe5b8283098314905092915050565b7f30644e72e131a029b85045b68181585d97816a916871ca8d3c208c16d87cfd4781565b600281565b6107fd6109f3565b610805610a37565b60405180608001604052808560006002811061081d57fe5b602002015181526020018560016002811061083457fe5b602002015181526020018460006002811061084b57fe5b602002015181526020018460016002811061086257fe5b602002015181525090506040826080836006600019fa61088157600080fd5b5092915050565b600181565b60008060007f30644e72e131a029b85045b68181585d97816a916871ca8d3c208c16d87cfd47806108ba57fe5b84850990507f30644e72e131a029b85045b68181585d97816a916871ca8d3c208c16d87cfd47806108e757fe5b84820990507f30644e72e131a029b85045b68181585d97816a916871ca8d3c208c16d87cfd478061091457fe5b6003820890506000610967827f0c19139cb84c680a6e14116da060561765e05aa45a1c72a34f082305b61f3f527f30644e72e131a029b85045b68181585d97816a916871ca8d3c208c16d87cfd476105d3565b90508181935093505050915091565b7f30644e72e131a029b85045b68181585d2833e84879b9709143e1f593f000000181565b60007f30644e72e131a029b85045b68181585d2833e84879b9709143e1f593f0000001806109c457fe5b828408905092915050565b7f0c19139cb84c680a6e14116da060561765e05aa45a1c72a34f082305b61f3f5281565b6040518060400160405280600290602082028038833980820191505090505090565b6040518060600160405280600390602082028038833980820191505090505090565b604051806080016040528060049060208202803883398082019150509050509056fea165627a7a72305820a9c4c619de770d247aeb04100fc19ebd57746534c5ecd5628863f22878bccc970029",
  "source": "pragma solidity >=0.5.0 <0.6.0;\n\n/** \n * Heavily referenced from https://github.com/ethereum/py_ecc/blob/master/py_ecc/bn128/bn128_curve.py\n*/\n\nlibrary AltBn128 {\n    uint256 constant public G1x = uint256(0x01);\n    uint256 constant public G1y = uint256(0x02);\n\n    // Number of elements in the field (often called `q`)\n    // n = n(u) = 36u^4 + 36u^3 + 18u^2 + 6u + 1\n    uint256 constant public N = 0x30644e72e131a029b85045b68181585d2833e84879b9709143e1f593f0000001;\n\n    // p = p(u) = 36u^4 + 36u^3 + 24u^2 + 6u + 1\n    // Field Order\n    uint256 constant public P = 0x30644e72e131a029b85045b68181585d97816a916871ca8d3c208c16d87cfd47;\n\n    // (p+1) / 4\n    uint256 constant public A = 0xc19139cb84c680a6e14116da060561765e05aa45a1c72a34f082305b61f3f52;\n\n    /* ECC Functions */\n    function ecAdd(uint256[2] memory p0, uint256[2] memory p1) public view\n        returns (uint256[2] memory retP)\n    {\n        uint256[4] memory i = [p0[0], p0[1], p1[0], p1[1]];\n        \n        assembly {\n            // call ecadd precompile\n            // inputs are: x1, y1, x2, y2\n            if iszero(staticcall(not(0), 0x06, i, 0x80, retP, 0x40)) {\n                revert(0, 0)\n            }\n        }\n    }\n\n    function ecMul(uint256[2] memory p, uint256 s) public view\n        returns (uint256[2] memory retP)\n    {\n        // With a public key (x, y), this computes p = scalar * (x, y).\n        uint256[3] memory i = [p[0], p[1], s];\n        \n        assembly {\n            // call ecmul precompile\n            // inputs are: x, y, scalar\n            if iszero(staticcall(not(0), 0x07, i, 0x60, retP, 0x40)) {\n                revert(0, 0)\n            }\n        }\n    }\n\n    function ecMulG(uint256 s) public view\n        returns (uint256[2] memory retP)\n    {\n        return ecMul([G1x, G1y], s);\n    }\n\n    function powmod(uint256 base, uint256 e, uint256 m) public view\n        returns (uint256 o)\n    {\n        // returns pow(base, e) % m\n        assembly {\n            // define pointer\n            let p := mload(0x40)\n\n            // Store data assembly-favouring ways\n            mstore(p, 0x20)             // Length of Base\n            mstore(add(p, 0x20), 0x20)  // Length of Exponent\n            mstore(add(p, 0x40), 0x20)  // Length of Modulus\n            mstore(add(p, 0x60), base)  // Base\n            mstore(add(p, 0x80), e)     // Exponent\n            mstore(add(p, 0xa0), m)     // Modulus\n\n            // call modexp precompile! -- old school gas handling\n            let success := staticcall(sub(gas, 2000), 0x05, p, 0xc0, p, 0x20)\n\n            // gas fiddling\n            switch success case 0 {\n                revert(0, 0)\n            }\n\n            // data\n            o := mload(p)\n        }\n    }\n\n    /* Helper functions */\n\n    function addmodn(uint256 x, uint256 n) public pure\n        returns (uint256)\n    {\n        return addmod(x, n, N);\n    }\n\n    function modn(uint256 x) public pure\n        returns (uint256)\n    {\n        return x % N;\n    }\n\n    function modp(uint256 x) public pure\n        returns (uint256)\n    {\n        return x % P;\n    }\n\n    /*\n       Checks if the points x, y exists on alt_bn_128 curve\n    */\n    function onCurve(uint256 x, uint256 y) public pure\n        returns(bool)\n    {\n        uint256 beta = mulmod(x, x, P);\n        beta = mulmod(beta, x, P);\n        beta = addmod(beta, 3, P);\n\n        return onCurveBeta(beta, y);\n    }\n\n    function onCurveBeta(uint256 beta, uint256 y) public pure\n        returns(bool)\n    {\n        return beta == mulmod(y, y, P);\n    }\n\n    /*\n    * Calculates point y value given x\n    */\n    function evalCurve(uint256 x) public view\n        returns (uint256, uint256)\n    {\n        uint256 beta = mulmod(x, x, P);\n        beta = mulmod(beta, x, P);\n        beta = addmod(beta, 3, P);\n\n        uint256 y = powmod(beta, A, P);\n\n        // require(beta == mulmod(y, y, P), \"Invalid x for evalCurve\");\n        return (beta, y);\n    }\n}",
  "sourcePath": "/home/kendrick/Development/Ethereum/heiswap-dapp/contracts/AltBn128.sol",
  "compiler": {
    "name": "solc",
    "version": "0.5.8+commit.23d335f2.Emscripten.clang"
  },
  "schemaVersion": "3.0.11",
  "updatedAt": "2019-07-26T12:42:40.573Z",
  "devdoc": {
    "methods": {}
  },
  "userdoc": {
    "methods": {},
    "notice": "Heavily referenced from https://github.com/ethereum/py_ecc/blob/master/py_ecc/bn128/bn128_curve.py"
  }
}