{
  "contractName": "Heiswap",
  "abi": [
    {
      "anonymous": false,
      "inputs": [
        {
          "indexed": false,
          "name": "",
          "type": "address"
        },
        {
          "indexed": false,
          "name": "etherAmount",
          "type": "uint256"
        },
        {
          "indexed": false,
          "name": "idx",
          "type": "uint256"
        }
      ],
      "name": "Deposited",
      "type": "event"
    },
    {
      "constant": false,
      "inputs": [
        {
          "name": "publicKey",
          "type": "uint256[2]"
        }
      ],
      "name": "deposit",
      "outputs": [],
      "payable": true,
      "stateMutability": "payable",
      "type": "function"
    },
    {
      "constant": false,
      "inputs": [
        {
          "name": "receiver",
          "type": "address"
        },
        {
          "name": "amountEther",
          "type": "uint256"
        },
        {
          "name": "index",
          "type": "uint256"
        },
        {
          "name": "c0",
          "type": "uint256"
        },
        {
          "name": "keyImage",
          "type": "uint256[2]"
        },
        {
          "name": "s",
          "type": "uint256[]"
        }
      ],
      "name": "withdraw",
      "outputs": [],
      "payable": false,
      "stateMutability": "nonpayable",
      "type": "function"
    },
    {
      "constant": false,
      "inputs": [
        {
          "name": "amount",
          "type": "uint256"
        },
        {
          "name": "index",
          "type": "uint256"
        }
      ],
      "name": "forceCloseRing",
      "outputs": [],
      "payable": false,
      "stateMutability": "nonpayable",
      "type": "function"
    },
    {
      "constant": true,
      "inputs": [
        {
          "name": "amountEther",
          "type": "uint256"
        },
        {
          "name": "index",
          "type": "uint256"
        }
      ],
      "name": "getRingHash",
      "outputs": [
        {
          "name": "",
          "type": "bytes32"
        }
      ],
      "payable": false,
      "stateMutability": "view",
      "type": "function"
    },
    {
      "constant": true,
      "inputs": [
        {
          "name": "amountEther",
          "type": "uint256"
        },
        {
          "name": "index",
          "type": "uint256"
        }
      ],
      "name": "getPublicKeys",
      "outputs": [
        {
          "name": "",
          "type": "bytes32[2][5]"
        }
      ],
      "payable": false,
      "stateMutability": "view",
      "type": "function"
    },
    {
      "constant": true,
      "inputs": [
        {
          "name": "amountEther",
          "type": "uint256"
        },
        {
          "name": "index",
          "type": "uint256"
        }
      ],
      "name": "getParticipants",
      "outputs": [
        {
          "name": "",
          "type": "uint8"
        },
        {
          "name": "",
          "type": "uint8"
        }
      ],
      "payable": false,
      "stateMutability": "view",
      "type": "function"
    },
    {
      "constant": true,
      "inputs": [],
      "name": "getRingMaxParticipants",
      "outputs": [
        {
          "name": "",
          "type": "uint256"
        }
      ],
      "payable": false,
      "stateMutability": "pure",
      "type": "function"
    },
    {
      "constant": true,
      "inputs": [
        {
          "name": "amountEther",
          "type": "uint256"
        }
      ],
      "name": "getCurrentRingIdx",
      "outputs": [
        {
          "name": "",
          "type": "uint256"
        }
      ],
      "payable": false,
      "stateMutability": "view",
      "type": "function"
    }
  ],
  "bytecode": "0x6080604052604051806101200160405280671bc16d674ec8000068ffffffffffffffffff168152602001673782dace9d90000068ffffffffffffffffff168152602001676f05b59d3b20000068ffffffffffffffffff16815260200167de0b6b3a7640000068ffffffffffffffffff1681526020016801bc16d674ec80000068ffffffffffffffffff1681526020016803782dace9d900000068ffffffffffffffffff1681526020016806f05b59d3b200000068ffffffffffffffffff168152602001680de0b6b3a76400000068ffffffffffffffffff168152602001681bc16d674ec800000068ffffffffffffffffff168152506000906009620001069291906200011b565b503480156200011457600080fd5b5062000195565b82600a81019282156200015a579160200282015b8281111562000159578251829068ffffffffffffffffff169055916020019190600101906200012f565b5b5090506200016991906200016d565b5090565b6200019291905b808211156200018e57600081600090555060010162000174565b5090565b90565b6117dc80620001a56000396000f3fe60806040526004361061007b5760003560e01c80639f1961e61161004e5780639f1961e614610299578063c0c4cbbd146102f2578063d5fce73514610341578063ded0ed16146103e55761007b565b8063143ad3561461008057806362230498146100e55780636a6dcd42146102295780637c0ffaa21461026e575b600080fd5b6100e36004803603604081101561009657600080fd5b8101908080604001906002806020026040519081016040528092919082600260200280828437600081840152601f19601f8201169050808301925050505050509192919290505050610451565b005b3480156100f157600080fd5b50610227600480360360e081101561010857600080fd5b81019080803573ffffffffffffffffffffffffffffffffffffffff16906020019092919080359060200190929190803590602001909291908035906020019092919080604001906002806020026040519081016040528092919082600260200280828437600081840152601f19601f8201169050808301925050505050509192919290803590602001906401000000008111156101a457600080fd5b8201836020820111156101b657600080fd5b803590602001918460208302840111640100000000831117156101d857600080fd5b919080806020026020016040519081016040528093929190818152602001838360200280828437600081840152601f19601f820116905080830192505050505050509192919290505050610868565b005b34801561023557600080fd5b5061026c6004803603604081101561024c57600080fd5b810190808035906020019092919080359060200190929190505050610f1a565b005b34801561027a57600080fd5b5061028361109c565b6040518082815260200191505060405180910390f35b3480156102a557600080fd5b506102dc600480360360408110156102bc57600080fd5b8101908080359060200190929190803590602001909291905050506110a5565b6040518082815260200191505060405180910390f35b3480156102fe57600080fd5b5061032b6004803603602081101561031557600080fd5b810190808035906020019092919050505061115d565b6040518082815260200191505060405180910390f35b34801561034d57600080fd5b506103846004803603604081101561036457600080fd5b810190808035906020019092919080359060200190929190505050611191565b604051808260056000925b818410156103d55782846020020151600260200280838360005b838110156103c45780820151818401526020810190506103a9565b50505050905001926001019261038f565b9250505091505060405180910390f35b3480156103f157600080fd5b506104286004803603604081101561040857600080fd5b8101908080359060200190929190803590602001909291905050506112be565b604051808360ff1660ff1681526020018260ff1660ff1681526020019250505060405180910390f35b600061045c34611380565b90506000600a60008381526020019081526020016000205490506000600b60008481526020019081526020016000206000838152602001908152602001600020905073__AltBn128______________________________63669d9448856000600281106104c557fe5b6020020151866001600281106104d757fe5b60200201516040518363ffffffff1660e01b8152600401808381526020018281526020019250505060206040518083038186803b15801561051757600080fd5b505af415801561052b573d6000803e3d6000fd5b505050506040513d602081101561054157600080fd5b81019080805190602001909291905050506105c4576040517f08c379a00000000000000000000000000000000000000000000000000000000081526004018080602001828103825260168152602001807f5075626c6963204b6579206e6f206f6e2043757276650000000000000000000081525060200191505060405180910390fd5b60008090505b8160030160009054906101000a900460ff1660ff168160ff1610156106e357846000600281106105f657fe5b60200201518260040160008360ff16815260200190815260200160002060006002811061061f57fe5b015414801561066357508460016002811061063657fe5b60200201518260040160008360ff16815260200190815260200160002060016002811061065f57fe5b0154145b156106d6576040517f08c379a000000000000000000000000000000000000000000000000000000000815260040180806020018281038252601f8152602001807f4164647265737320616c726561647920696e2063757272656e742052696e670081525060200191505060405180910390fd5b80806001019150506105ca565b5060008160030160009054906101000a900460ff1660ff16141561070e576001430381600001819055505b838160040160008360030160009054906101000a900460ff1660ff1681526020019081526020016000209060026107469291906115df565b5080600301600081819054906101000a900460ff168092919060010191906101000a81548160ff021916908360ff1602179055505082816002016000828254019250508190555060058160030160009054906101000a900460ff1660ff16106107ef576107c4670de0b6b3a764000084816107bd57fe5b0483611442565b81600101819055506001600a6000858152602001908152602001600020600082825401925050819055505b7f73a19dd210f1a7f902193214c0ee91dd35ee5b4d920cba8d519eca65a7b488ca338484604051808473ffffffffffffffffffffffffffffffffffffffff1673ffffffffffffffffffffffffffffffffffffffff168152602001838152602001828152602001935050505060405180910390a150505050565b6000805a90506000610883670de0b6b3a76400008902611380565b90506000600b60008381526020019081526020016000206000898152602001908152602001600020905060058160050160009054906101000a900460ff1660ff161061091a576040517f08c379a000000000000000000000000000000000000000000000000000000000815260040180806020018281038252602e815260200180611783602e913960400191505060405180910390fd5b6000801b81600101541415610997576040517f08c379a00000000000000000000000000000000000000000000000000000000081526004018080602001828103825260118152602001807f52696e672069736e277420636c6f73656400000000000000000000000000000081525060200191505060405180910390fd5b606060056040519080825280602002602001820160405280156109d457816020015b6109c161161f565b8152602001906001900390816109b95790505b509050600094505b6005851015610a685760405180604001604052808360040160008860ff168152602001908152602001600020600060028110610a1457fe5b015481526020018360040160008860ff168152602001908152602001600020600160028110610a3f57fe5b0154815250818681518110610a5057fe5b602002602001018190525084806001019550506109dc565b600073__LSAG__________________________________63fe46a2b28460010154604051602001808281526020019150506040516020818303038152906040528b8b8b876040518663ffffffff1660e01b8152600401808060200186815260200185600260200280838360005b83811015610af0578082015181840152602081019050610ad5565b505050509050018060200180602001848103845289818151815260200191508051906020019080838360005b83811015610b37578082015181840152602081019050610b1c565b50505050905090810190601f168015610b645780820380516001836020036101000a031916815260200191505b50848103835286818151815260200191508051906020019060200280838360005b83811015610ba0578082015181840152602081019050610b85565b505050509050018481038252858181518152602001915080516000925b81841015610c065782846020026020010151600260200280838360005b83811015610bf5578082015181840152602081019050610bda565b505050509050019260010192610bbd565b925050509850505050505050505060206040518083038186803b158015610c2c57600080fd5b505af4158015610c40573d6000803e3d6000fd5b505050506040513d6020811015610c5657600080fd5b8101908080519060200190929190505050905080610cdc576040517f08c379a00000000000000000000000000000000000000000000000000000000081526004018080602001828103825260118152602001807f496e76616c6964207369676e617475726500000000000000000000000000000081525060200191505060405180910390fd5b600095505b8260050160009054906101000a900460ff1660ff16861015610df75787600060028110610d0a57fe5b60200201518360060160008860ff168152602001908152602001600020600060028110610d3357fe5b0154148015610d77575087600160028110610d4a57fe5b60200201518360060160008860ff168152602001908152602001600020600160028110610d7357fe5b0154145b15610dea576040517f08c379a00000000000000000000000000000000000000000000000000000000081526004018080602001828103825260188152602001807f5369676e617475726520686173206265656e207573656421000000000000000081525060200191505060405180910390fd5b8580600101965050610ce1565b878360060160008560050160009054906101000a900460ff1660ff168152602001908152602001600020906002610e2f9291906115df565b5060018360050160008282829054906101000a900460ff160192506101000a81548160ff021916908360ff16021790555060005a8603905060008682604b8881610e7557fe5b04010190503373ffffffffffffffffffffffffffffffffffffffff166108fc829081150290604051600060405180830381858888f19350505050158015610ec0573d6000803e3d6000fd5b508d73ffffffffffffffffffffffffffffffffffffffff166108fc8288039081150290604051600060405180830381858888f19350505050158015610f09573d6000803e3d6000fd5b505050505050505050505050505050565b6000610f2f670de0b6b3a76400008402611380565b90506000600a60008381526020019081526020016000205490506000600b6000848152602001908152602001600020600083815260200190815260200160002090506000801b816001015414610fed576040517f08c379a00000000000000000000000000000000000000000000000000000000081526004018080602001828103825260178152602001807f52696e6720697320616c726561647920636c6f7365642100000000000000000081525060200191505060405180910390fd5b6116808160000154600143030310611050576040517f08c379a000000000000000000000000000000000000000000000000000000000815260040180806020018281038252603581526020018061174e6035913960400191505060405180910390fd5b61106b670de0b6b3a7640000848161106457fe5b0485611442565b81600101819055506001600a6000858152602001908152602001600020600082825401925050819055505050505050565b60006005905090565b6000806110bb670de0b6b3a76400008502611380565b90506110c5611641565b600b600083815260200190815260200160002060008581526020019081526020016000206040518060a00160405290816000820154815260200160018201548152602001600282015481526020016003820160009054906101000a900460ff1660ff1660ff1681526020016005820160009054906101000a900460ff1660ff1660ff1681525050905080602001519250505092915050565b600080611173670de0b6b3a76400008402611380565b9050600a600082815260200190815260200160002054915050919050565b611199611679565b60006111ae670de0b6b3a76400008502611380565b90506111b8611679565b60008090505b60058110156112b257600b60008481526020019081526020016000206000868152602001908152602001600020600401600082815260200190815260200160002060006002811061120b57fe5b015460001b82826005811061121c57fe5b602002015160006002811061122d57fe5b602002018181525050600b60008481526020019081526020016000206000868152602001908152602001600020600401600082815260200190815260200160002060016002811061127a57fe5b015460001b82826005811061128b57fe5b602002015160016002811061129c57fe5b60200201818152505080806001019150506111be565b50809250505092915050565b60008060006112d6670de0b6b3a76400008602611380565b90506112e0611641565b600b600083815260200190815260200160002060008681526020019081526020016000206040518060a00160405290816000820154815260200160018201548152602001600282015481526020016003820160009054906101000a900460ff1660ff1660ff1681526020016005820160009054906101000a900460ff1660ff1660ff16815250509050806060015181608001519350935050509250929050565b60008060008090506000670de0b6b3a764000080868161139c57fe5b04029050600092505b600a8310156113e15780600084600a81106113bc57fe5b015414156113c957600191505b81156113d4576113e1565b82806001019350506113a5565b81611437576040517f08c379a000000000000000000000000000000000000000000000000000000000815260040180806020018281038252603181526020018061171d6031913960400191505060405180910390fd5b809350505050919050565b600061144c6116a7565b6000611461670de0b6b3a76400008602611380565b90506000600b60008381526020019081526020016000206000868152602001908152602001600020905060008090505b60058160ff161015611515578160040160008260ff1681526020019081526020016000206002806020026040519081016040528092919082600280156114ec576020028201915b8154815260200190600101908083116114d8575b5050505050848260ff166005811061150057fe5b60200201819052508080600101915050611491565b5060606001430340826000015483600201548460030160009054906101000a900460ff1687604051602001808681526020018581526020018481526020018360ff1660ff1660f81b81526001018260056000925b818410156115af5782846020020151600260200280838360005b8381101561159e578082015181840152602081019050611583565b505050509050019260010192611569565b92505050955050505050506040516020818303038152906040529050808051906020012094505050505092915050565b826002810192821561160e579160200282015b8281111561160d5782518255916020019190600101906115f2565b5b50905061161b91906116d5565b5090565b6040518060400160405280600290602082028038833980820191505090505090565b6040518060a00160405280600081526020016000801916815260200160008152602001600060ff168152602001600060ff1681525090565b6040518061014001604052806005905b6116916116fa565b8152602001906001900390816116895790505090565b6040518061014001604052806005905b6116bf61161f565b8152602001906001900390816116b75790505090565b6116f791905b808211156116f35760008160009055506001016116db565b5090565b90565b604051806040016040528060029060208202803883398082019150509050509056fe4f6e6c79204554482076616c756573206f6620322c20342c20362c2038202e2e2e203531322061726520616c6c6f77656452696e67206e6565647320746f206d6174757265206c6f6e676572206265666f726520666f72636566756c6c7920636c6f73696e67416c6c2066756e64732066726f6d2063757272656e742052696e6720686173206265656e2077697468647261776ea165627a7a723058208917cd064e476d309ece46fc70fa3a90c48619c0ccffc7d579a05517119aab0d0029",
  "source": "pragma solidity >=0.5.0 <0.6.0;\n\nimport \"./AltBn128.sol\";\nimport \"./LSAG.sol\";\n\ncontract Heiswap {\n    // Events\n    event Deposited(address, uint256 etherAmount, uint256 idx);\n\n    // Minimum number of blocks that needs to be mined\n    // before user can forcefully close the ring\n    // Each blockTime is ~15 seconds\n    // Want 86400 seconds to pass (24 hours)\n    // So 86400 / 15 = 5760 blocks, which is roughly one day\n    uint256 constant minBlockNumberToCloseRing = 5760;\n\n    // Maximum number of participants in a ring\n    uint256 constant ringMaxParticipants = 5;\n\n    struct Ring {\n        /* NOTE: Once someone signs a transaction\n                 then no one else is able to deposit\n                 money into the ring anymore\n        */\n\n        // When was thing block created\n        uint256 createdBlockNumber;\n\n        // Ring hash will be available once\n        // there is 5 participants in the ring\n        // TODO: Manually call the function \"closeRing\"\n        bytes32 ringHash;\n\n        // In a ring, everyone deposits\n        // the same amount of ETH. Otherwise\n        // the sender and receiver can be identified\n        // which defeats the whole purpose of this\n        // application\n        uint256 amountDeposited;\n\n        // Number of participants who've deposited\n        uint8 dParticipantsNo;\n        // The Public Key (stealth addresses)\n        // These are in bytes because web3.js is\n        // buggy with big int\n        mapping (uint256 => uint256[2]) publicKeys;\n\n        // Number of participants who've withdrawn\n        uint8 wParticipantsNo;\n        // Key Images of participants who have withdrawn\n        // Used to determine if a participant is trying to\n        // double withdraw\n        mapping (uint256 => uint256[2]) keyImages;\n    }\n\n    // Fixed amounts allowed to be inserted into the rings\n    uint256[10] allowedAmounts = [\n        2 ether, 4 ether, 8 ether, 16 ether, 32 ether,\n        64 ether, 128 ether, 256 ether, 512 ether\n    ];\n\n    // Mimics dynamic 'lists'\n    // allowedAmount => numberOfRings (in the current amount)\n    mapping(uint256 => uint256) ringsNo;\n\n    // allowedAmount => ringIndex => Ring\n    mapping (uint256 => mapping(uint256 => Ring)) rings;\n\n\n    function deposit(uint256[2] memory publicKey) public payable\n    {\n        // Get amount sent\n        uint256 receivedEther = floorEtherAndCheck(msg.value);\n\n        // Gets the current ring for the amounts\n        uint256 curIndex = ringsNo[receivedEther];\n        Ring storage ring = rings[receivedEther][curIndex];\n\n        if (!AltBn128.onCurve(uint256(publicKey[0]), uint256(publicKey[1]))) {\n            revert(\"Public Key no on Curve\");\n        }\n\n        // Make sure that public key (stealth address)\n        // isn't already in there\n        for (uint8 i = 0; i < ring.dParticipantsNo; i++) {\n            if (ring.publicKeys[i][0] == publicKey[0] &&\n                ring.publicKeys[i][1] == publicKey[1]) {\n                revert(\"Address already in current Ring\");\n            }\n        }\n\n        // If its a new ring\n        // set createdBlockNum size\n        if (ring.dParticipantsNo == 0) {\n            ring.createdBlockNumber = block.number - 1;\n        }\n\n        // Update ring params\n        ring.publicKeys[ring.dParticipantsNo] = publicKey;\n        ring.dParticipantsNo++;\n        ring.amountDeposited += receivedEther;\n\n        // Create new ring if current ring has exceeded number of participants\n        if (ring.dParticipantsNo >= ringMaxParticipants) {\n            // Set ringHash\n            ring.ringHash = createRingHash(receivedEther / (1 ether), curIndex);\n\n            // Add new Ring pool\n            ringsNo[receivedEther] += 1;\n        }\n\n        // Broadcast Event\n        emit Deposited(msg.sender, receivedEther, curIndex);\n    }\n\n    // User can only withdraw if the ring is closed\n    // NOTE: Convert to ether\n    // i.e. there is a ringHash\n    function withdraw(\n        address payable receiver, uint256 amountEther, uint256 index,\n        uint256 c0, uint256[2] memory keyImage, uint256[] memory s\n    ) public\n    {\n        uint i;\n        uint256 startGas = gasleft();\n\n        // Get amount sent\n        uint256 withdrawEther = floorEtherAndCheck(amountEther * 1 ether);\n\n        // Gets the current ring for the amounts\n        Ring storage ring = rings[withdrawEther][index];\n\n        // If everyone has withdrawn\n        if (ring.wParticipantsNo >= ringMaxParticipants) {\n            revert(\"All funds from current Ring has been withdrawn\");\n        }\n\n        // Ring needs to be closed first\n        // TODO: Make sure ring is closed later on...\n        if (ring.ringHash == bytes32(0x00)) {\n            revert(\"Ring isn't closed\");\n        }\n\n        uint256[2][] memory publicKeys = new uint256[2][](ringMaxParticipants);\n\n        for (i = 0; i < ringMaxParticipants; i++) {\n            publicKeys[i] = [\n                uint256(ring.publicKeys[uint8(i)][0]),\n                uint256(ring.publicKeys[uint8(i)][1])\n            ];\n        }\n\n        // Attempts to verify ring signature\n        bool signatureVerified = LSAG.verify(\n            abi.encodePacked(ring.ringHash), // Convert to bytes\n            c0,\n            keyImage,\n            s,\n            publicKeys\n        );\n\n        if (!signatureVerified) {\n            revert(\"Invalid signature\");\n        }\n\n        // Checks if Key Image has been used\n        // AKA No double withdraw\n        for (i = 0; i < ring.wParticipantsNo; i++) {\n            if (ring.keyImages[uint8(i)][0] == keyImage[0] &&\n                ring.keyImages[uint8(i)][1] == keyImage[1]) {\n                revert(\"Signature has been used!\");\n            }\n        }\n\n        // Otherwise adds key image to the current key image\n        // And adjusts params accordingly\n        ring.keyImages[ring.wParticipantsNo] = keyImage;\n        ring.wParticipantsNo += 1;\n\n        // Send ETH to receiver\n        // Calculate fees (1.33%) + gasUsage fees\n        uint256 gasUsed = startGas - gasleft();\n        uint256 fees = (withdrawEther / 75) + gasUsed + startGas;\n\n        // Relayer gets (1%) of the xferred value + compensated for gas usage\n        msg.sender.transfer(fees);\n\n        // Reciever then gets the remaining ETH\n        receiver.transfer(withdrawEther - fees);\n    }\n\n\n    // If enough blocks has passed, user can manually close the ring.\n    function forceCloseRing(\n        uint256 amount, uint256 index\n    ) public\n    {\n        // Get amount sent\n        uint256 receivedEther = floorEtherAndCheck(amount * 1 ether);\n\n        // Gets the current ring for the amounts\n        uint256 curIndex = ringsNo[receivedEther];\n        Ring storage ring = rings[receivedEther][curIndex];\n\n\n        if (ring.ringHash != bytes32(0x00)) {\n            revert(\"Ring is already closed!\");\n        }\n\n        if (block.number - 1 - ring.createdBlockNumber >= minBlockNumberToCloseRing) {\n            revert(\"Ring needs to mature longer before forcefully closing\");\n        }\n\n        // Close the ring\n        ring.ringHash = createRingHash(receivedEther / (1 ether), index);\n\n        // Create new ring\n        ringsNo[receivedEther] += 1;\n    }\n\n    /* Helper functions */\n    // TODO: Use safemath library\n\n    // Creates ring hash (used for signing)\n    function createRingHash(uint256 amountEther, uint256 index) internal view\n        returns (bytes32)\n    {\n        uint256[2][ringMaxParticipants] memory publicKeys;\n        uint256 receivedEther = floorEtherAndCheck(amountEther * 1 ether);\n\n        Ring storage r = rings[receivedEther][index];\n\n        for (uint8 i = 0; i < ringMaxParticipants; i++) {\n            publicKeys[i] = r.publicKeys[i];\n        }\n\n        bytes memory b = abi.encodePacked(\n            blockhash(block.number - 1),\n            r.createdBlockNumber,\n            r.amountDeposited,\n            r.dParticipantsNo,\n            publicKeys\n        );\n\n        return keccak256(b);\n    }\n\n    // Gets ring hash\n    function getRingHash(uint256 amountEther, uint256 index) public view\n        returns (bytes32)\n    {\n        uint256 receivedEther = floorEtherAndCheck(amountEther * 1 ether);\n        Ring memory r = rings[receivedEther][index];\n\n        return r.ringHash;\n    }\n\n    // Gets all addresses in a Ring\n    // Converting to Bytes32 cause web3.js has a bug that doesn't convert\n    // Big Num correctly....\n    function getPublicKeys(uint256 amountEther, uint256 index) public view\n        returns (bytes32[2][ringMaxParticipants] memory)\n    {\n        uint256 receivedEther = floorEtherAndCheck(amountEther * 1 ether);\n\n        bytes32[2][ringMaxParticipants] memory publicKeys;\n\n        for (uint i = 0; i < ringMaxParticipants; i++) {\n            publicKeys[i][0] = bytes32(rings[receivedEther][index].publicKeys[i][0]);\n            publicKeys[i][1] = bytes32(rings[receivedEther][index].publicKeys[i][1]);\n        }\n\n        return publicKeys;\n    }\n\n    // Gets number of participants who\n    // have deposited and withdrawn\n    // ret: (dParticipants, wParticipants)\n    function getParticipants(uint256 amountEther, uint256 index) public view\n        returns (uint8, uint8)\n    {\n        uint256 receivedEther = floorEtherAndCheck(amountEther * 1 ether);\n        Ring memory r = rings[receivedEther][index];\n\n        return (r.dParticipantsNo, r.wParticipantsNo);\n    }\n\n    // Gets the current ring index\n    // for the given amount of ether\n    // Used to estimate the current idx for better UX\n    function getRingMaxParticipants() public pure\n        returns (uint256)\n    {\n        return ringMaxParticipants;\n    }\n\n    // Gets the current ring index\n    // for the given amount of ether\n    // Used to estimate the current idx for better UX\n    function getCurrentRingIdx(uint256 amountEther) public view\n        returns (uint256)\n    {\n        uint256 receivedEther = floorEtherAndCheck(amountEther * 1 ether);\n        return ringsNo[receivedEther];\n    }\n\n    // Floors the current ether values\n    // Makes sure the values needs to in `allowedAmounts`\n    function floorEtherAndCheck(uint256 receivedAmount) internal view\n        returns (uint256)\n    {\n        uint256 i;\n        bool allowed = false;\n\n        // Floors received ether\n        uint256 receivedEther = (receivedAmount / 1 ether) * 1 ether;\n\n        for (i = 0; i < 10; i ++) {\n            if (allowedAmounts[i] == receivedEther) {\n                allowed = true;\n            }\n            if (allowed) {\n                break;\n            }\n        }\n\n        // Revert if ETH sent isn't in the allowed fixed amounts\n        require(allowed, \"Only ETH values of 2, 4, 6, 8 ... 512 are allowed\");\n\n        return receivedEther;\n    }\n}",
  "sourcePath": "/home/kendrick/Development/Ethereum/heiswap-dapp/contracts/Heiswap.sol",
  "compiler": {
    "name": "solc",
    "version": "0.5.8+commit.23d335f2.Emscripten.clang"
  },
  "schemaVersion": "3.0.11",
  "updatedAt": "2019-06-30T12:54:25.731Z",
  "devdoc": {
    "methods": {}
  },
  "userdoc": {
    "methods": {}
  }
}