{
  "contractName": "Heiswap",
  "abi": [
    {
      "anonymous": false,
      "inputs": [
        {
          "indexed": false,
          "name": "",
          "type": "address"
        },
        {
          "indexed": false,
          "name": "etherAmount",
          "type": "uint256"
        },
        {
          "indexed": false,
          "name": "idx",
          "type": "uint256"
        }
      ],
      "name": "Deposited",
      "type": "event"
    },
    {
      "constant": false,
      "inputs": [
        {
          "name": "publicKey",
          "type": "uint256[2]"
        }
      ],
      "name": "deposit",
      "outputs": [],
      "payable": true,
      "stateMutability": "payable",
      "type": "function"
    },
    {
      "constant": false,
      "inputs": [
        {
          "name": "receiver",
          "type": "address"
        },
        {
          "name": "amountEther",
          "type": "uint256"
        },
        {
          "name": "index",
          "type": "uint256"
        },
        {
          "name": "c0",
          "type": "uint256"
        },
        {
          "name": "keyImage",
          "type": "uint256[2]"
        },
        {
          "name": "s",
          "type": "uint256[]"
        }
      ],
      "name": "withdraw",
      "outputs": [],
      "payable": false,
      "stateMutability": "nonpayable",
      "type": "function"
    },
    {
      "constant": false,
      "inputs": [
        {
          "name": "amount",
          "type": "uint256"
        },
        {
          "name": "index",
          "type": "uint256"
        },
        {
          "name": "c0",
          "type": "uint256"
        },
        {
          "name": "keyImage",
          "type": "uint256[2]"
        },
        {
          "name": "s",
          "type": "uint256[]"
        }
      ],
      "name": "forceCloseRing",
      "outputs": [],
      "payable": false,
      "stateMutability": "nonpayable",
      "type": "function"
    },
    {
      "constant": true,
      "inputs": [
        {
          "name": "amountEther",
          "type": "uint256"
        },
        {
          "name": "index",
          "type": "uint256"
        }
      ],
      "name": "getRingHash",
      "outputs": [
        {
          "name": "",
          "type": "bytes"
        }
      ],
      "payable": false,
      "stateMutability": "view",
      "type": "function"
    },
    {
      "constant": true,
      "inputs": [
        {
          "name": "amountEther",
          "type": "uint256"
        },
        {
          "name": "index",
          "type": "uint256"
        }
      ],
      "name": "getPublicKeys",
      "outputs": [
        {
          "name": "",
          "type": "bytes32[2][5]"
        }
      ],
      "payable": false,
      "stateMutability": "view",
      "type": "function"
    },
    {
      "constant": true,
      "inputs": [
        {
          "name": "amountEther",
          "type": "uint256"
        },
        {
          "name": "index",
          "type": "uint256"
        }
      ],
      "name": "getParticipants",
      "outputs": [
        {
          "name": "",
          "type": "uint8"
        },
        {
          "name": "",
          "type": "uint8"
        }
      ],
      "payable": false,
      "stateMutability": "view",
      "type": "function"
    },
    {
      "constant": true,
      "inputs": [
        {
          "name": "amountEther",
          "type": "uint256"
        },
        {
          "name": "index",
          "type": "uint256"
        }
      ],
      "name": "getForceCloseBlocksLeft",
      "outputs": [
        {
          "name": "",
          "type": "uint256"
        }
      ],
      "payable": false,
      "stateMutability": "view",
      "type": "function"
    },
    {
      "constant": true,
      "inputs": [],
      "name": "getRingMaxParticipants",
      "outputs": [
        {
          "name": "",
          "type": "uint256"
        }
      ],
      "payable": false,
      "stateMutability": "pure",
      "type": "function"
    },
    {
      "constant": true,
      "inputs": [
        {
          "name": "amountEther",
          "type": "uint256"
        }
      ],
      "name": "getCurrentRingIdx",
      "outputs": [
        {
          "name": "",
          "type": "uint256"
        }
      ],
      "payable": false,
      "stateMutability": "view",
      "type": "function"
    }
  ],
  "bytecode": "0x6080604052604051806101200160405280671bc16d674ec8000068ffffffffffffffffff168152602001673782dace9d90000068ffffffffffffffffff168152602001676f05b59d3b20000068ffffffffffffffffff16815260200167de0b6b3a7640000068ffffffffffffffffff1681526020016801bc16d674ec80000068ffffffffffffffffff1681526020016803782dace9d900000068ffffffffffffffffff1681526020016806f05b59d3b200000068ffffffffffffffffff168152602001680de0b6b3a76400000068ffffffffffffffffff168152602001681bc16d674ec800000068ffffffffffffffffff168152506000906009620001069291906200011b565b503480156200011457600080fd5b5062000195565b82600a81019282156200015a579160200282015b8281111562000159578251829068ffffffffffffffffff169055916020019190600101906200012f565b5b5090506200016991906200016d565b5090565b6200019291905b808211156200018e57600081600090555060010162000174565b5090565b90565b611e6280620001a56000396000f3fe6080604052600436106100865760003560e01c80639f1961e6116100595780639f1961e6146102b8578063b787d98414610376578063c0c4cbbd1461049a578063d5fce735146104e9578063ded0ed161461058d57610086565b8063143ad3561461008b57806333fba1c8146100f057806362230498146101495780637c0ffaa21461028d575b600080fd5b6100ee600480360360408110156100a157600080fd5b8101908080604001906002806020026040519081016040528092919082600260200280828437600081840152601f19601f82011690508083019250505050505091929192905050506105f9565b005b3480156100fc57600080fd5b506101336004803603604081101561011357600080fd5b810190808035906020019092919080359060200190929190505050610a10565b6040518082815260200191505060405180910390f35b34801561015557600080fd5b5061028b600480360360e081101561016c57600080fd5b81019080803573ffffffffffffffffffffffffffffffffffffffff16906020019092919080359060200190929190803590602001909291908035906020019092919080604001906002806020026040519081016040528092919082600260200280828437600081840152601f19601f82011690508083019250505050505091929192908035906020019064010000000081111561020857600080fd5b82018360208201111561021a57600080fd5b8035906020019184602083028401116401000000008311171561023c57600080fd5b919080806020026020016040519081016040528093929190818152602001838360200280828437600081840152601f19601f820116905080830192505050505050509192919290505050610aed565b005b34801561029957600080fd5b506102a261119f565b6040518082815260200191505060405180910390f35b3480156102c457600080fd5b506102fb600480360360408110156102db57600080fd5b8101908080359060200190929190803590602001909291905050506111a8565b6040518080602001828103825283818151815260200191508051906020019080838360005b8381101561033b578082015181840152602081019050610320565b50505050905090810190601f1680156103685780820380516001836020036101000a031916815260200191505b509250505060405180910390f35b34801561038257600080fd5b50610498600480360360c081101561039957600080fd5b8101908080359060200190929190803590602001909291908035906020019092919080604001906002806020026040519081016040528092919082600260200280828437600081840152601f19601f82011690508083019250505050505091929192908035906020019064010000000081111561041557600080fd5b82018360208201111561042757600080fd5b8035906020019184602083028401116401000000008311171561044957600080fd5b919080806020026020016040519081016040528093929190818152602001838360200280828437600081840152601f19601f8201169050808301925050505050505091929192905050506112e9565b005b3480156104a657600080fd5b506104d3600480360360208110156104bd57600080fd5b81019080803590602001909291905050506117e3565b6040518082815260200191505060405180910390f35b3480156104f557600080fd5b5061052c6004803603604081101561050c57600080fd5b810190808035906020019092919080359060200190929190505050611817565b604051808260056000925b8184101561057d5782846020020151600260200280838360005b8381101561056c578082015181840152602081019050610551565b505050509050019260010192610537565b9250505091505060405180910390f35b34801561059957600080fd5b506105d0600480360360408110156105b057600080fd5b810190808035906020019092919080359060200190929190505050611944565b604051808360ff1660ff1681526020018260ff1660ff1681526020019250505060405180910390f35b600061060434611a06565b90506000600a60008381526020019081526020016000205490506000600b60008481526020019081526020016000206000838152602001908152602001600020905073__AltBn128______________________________63669d94488560006002811061066d57fe5b60200201518660016002811061067f57fe5b60200201516040518363ffffffff1660e01b8152600401808381526020018281526020019250505060206040518083038186803b1580156106bf57600080fd5b505af41580156106d3573d6000803e3d6000fd5b505050506040513d60208110156106e957600080fd5b810190808051906020019092919050505061076c576040517f08c379a00000000000000000000000000000000000000000000000000000000081526004018080602001828103825260168152602001807f5075626c6963204b6579206e6f206f6e2043757276650000000000000000000081525060200191505060405180910390fd5b60008090505b8160030160009054906101000a900460ff1660ff168160ff16101561088b578460006002811061079e57fe5b60200201518260040160008360ff1681526020019081526020016000206000600281106107c757fe5b015414801561080b5750846001600281106107de57fe5b60200201518260040160008360ff16815260200190815260200160002060016002811061080757fe5b0154145b1561087e576040517f08c379a000000000000000000000000000000000000000000000000000000000815260040180806020018281038252601f8152602001807f4164647265737320616c726561647920696e2063757272656e742052696e670081525060200191505060405180910390fd5b8080600101915050610772565b5060008160030160009054906101000a900460ff1660ff1614156108b6576001430381600001819055505b838160040160008360030160009054906101000a900460ff1660ff1681526020019081526020016000209060026108ee929190611c65565b5080600301600081819054906101000a900460ff168092919060010191906101000a81548160ff021916908360ff1602179055505082816002016000828254019250508190555060058160030160009054906101000a900460ff1660ff16106109975761096c670de0b6b3a7640000848161096557fe5b0483611ac8565b81600101819055506001600a6000858152602001908152602001600020600082825401925050819055505b7f73a19dd210f1a7f902193214c0ee91dd35ee5b4d920cba8d519eca65a7b488ca338484604051808473ffffffffffffffffffffffffffffffffffffffff1673ffffffffffffffffffffffffffffffffffffffff168152602001838152602001828152602001935050505060405180910390a150505050565b600080610a26670de0b6b3a76400008502611a06565b9050610a30611ca5565b600b600083815260200190815260200160002060008581526020019081526020016000206040518060a00160405290816000820154815260200160018201548152602001600282015481526020016003820160009054906101000a900460ff1660ff1660ff1681526020016005820160009054906101000a900460ff1660ff1660ff1681525050905060008160000151600143030390506116808110610adc5760009350505050610ae7565b806116800393505050505b92915050565b6000805a90506000610b08670de0b6b3a76400008902611a06565b90506000600b60008381526020019081526020016000206000898152602001908152602001600020905060058160050160009054906101000a900460ff1660ff1610610b9f576040517f08c379a000000000000000000000000000000000000000000000000000000000815260040180806020018281038252602e815260200180611e09602e913960400191505060405180910390fd5b6000801b81600101541415610c1c576040517f08c379a00000000000000000000000000000000000000000000000000000000081526004018080602001828103825260118152602001807f52696e672069736e277420636c6f73656400000000000000000000000000000081525060200191505060405180910390fd5b60606005604051908082528060200260200182016040528015610c5957816020015b610c46611cdd565b815260200190600190039081610c3e5790505b509050600094505b6005851015610ced5760405180604001604052808360040160008860ff168152602001908152602001600020600060028110610c9957fe5b015481526020018360040160008860ff168152602001908152602001600020600160028110610cc457fe5b0154815250818681518110610cd557fe5b60200260200101819052508480600101955050610c61565b600073__LSAG__________________________________63fe46a2b28460010154604051602001808281526020019150506040516020818303038152906040528b8b8b876040518663ffffffff1660e01b8152600401808060200186815260200185600260200280838360005b83811015610d75578082015181840152602081019050610d5a565b505050509050018060200180602001848103845289818151815260200191508051906020019080838360005b83811015610dbc578082015181840152602081019050610da1565b50505050905090810190601f168015610de95780820380516001836020036101000a031916815260200191505b50848103835286818151815260200191508051906020019060200280838360005b83811015610e25578082015181840152602081019050610e0a565b505050509050018481038252858181518152602001915080516000925b81841015610e8b5782846020026020010151600260200280838360005b83811015610e7a578082015181840152602081019050610e5f565b505050509050019260010192610e42565b925050509850505050505050505060206040518083038186803b158015610eb157600080fd5b505af4158015610ec5573d6000803e3d6000fd5b505050506040513d6020811015610edb57600080fd5b8101908080519060200190929190505050905080610f61576040517f08c379a00000000000000000000000000000000000000000000000000000000081526004018080602001828103825260118152602001807f496e76616c6964207369676e617475726500000000000000000000000000000081525060200191505060405180910390fd5b600095505b8260050160009054906101000a900460ff1660ff1686101561107c5787600060028110610f8f57fe5b60200201518360060160008860ff168152602001908152602001600020600060028110610fb857fe5b0154148015610ffc575087600160028110610fcf57fe5b60200201518360060160008860ff168152602001908152602001600020600160028110610ff857fe5b0154145b1561106f576040517f08c379a00000000000000000000000000000000000000000000000000000000081526004018080602001828103825260188152602001807f5369676e617475726520686173206265656e207573656421000000000000000081525060200191505060405180910390fd5b8580600101965050610f66565b878360060160008560050160009054906101000a900460ff1660ff1681526020019081526020016000209060026110b4929190611c65565b5060018360050160008282829054906101000a900460ff160192506101000a81548160ff021916908360ff16021790555060005a8603905060008682604b88816110fa57fe5b04010190503373ffffffffffffffffffffffffffffffffffffffff166108fc829081150290604051600060405180830381858888f19350505050158015611145573d6000803e3d6000fd5b508d73ffffffffffffffffffffffffffffffffffffffff166108fc8288039081150290604051600060405180830381858888f1935050505015801561118e573d6000803e3d6000fd5b505050505050505050505050505050565b60006005905090565b606060006111bf670de0b6b3a76400008502611a06565b90506111c9611ca5565b600b600083815260200190815260200160002060008581526020019081526020016000206040518060a00160405290816000820154815260200160018201548152602001600282015481526020016003820160009054906101000a900460ff1660ff1660ff1681526020016005820160009054906101000a900460ff1660ff1660ff168152505090506000801b816020015114156112ba57818460405160200180807f636c6f736552696e67000000000000000000000000000000000000000000000081525060090183815260200182815260200192505050604051602081830303815290604052925050506112e3565b806020015160405160200180828152602001915050604051602081830303815290604052925050505b92915050565b60006112fe670de0b6b3a76400008702611a06565b90506000600a60008381526020019081526020016000205490506000600b6000848152602001908152602001600020600083815260200190815260200160002090506000801b8160010154146113bc576040517f08c379a00000000000000000000000000000000000000000000000000000000081526004018080602001828103825260178152602001807f52696e6720697320616c726561647920636c6f7365642100000000000000000081525060200191505060405180910390fd5b611680816000015460014303031061141f576040517f08c379a0000000000000000000000000000000000000000000000000000000008152600401808060200182810382526035815260200180611dd46035913960400191505060405180910390fd5b6060600560405190808252806020026020018201604052801561145c57816020015b611449611cdd565b8152602001906001900390816114415790505b50905060008090505b60058110156114f15760405180604001604052808460040160008460ff16815260200190815260200160002060006002811061149d57fe5b015481526020018460040160008460ff1681526020019081526020016000206001600281106114c857fe5b01548152508282815181106114d957fe5b60200260200101819052508080600101915050611465565b50600073__LSAG__________________________________63fe46a2b2868660405160200180807f636c6f736552696e670000000000000000000000000000000000000000000000815250600901838152602001828152602001925050506040516020818303038152906040528a8a8a876040518663ffffffff1660e01b8152600401808060200186815260200185600260200280838360005b838110156115a657808201518184015260208101905061158b565b505050509050018060200180602001848103845289818151815260200191508051906020019080838360005b838110156115ed5780820151818401526020810190506115d2565b50505050905090810190601f16801561161a5780820380516001836020036101000a031916815260200191505b50848103835286818151815260200191508051906020019060200280838360005b8381101561165657808201518184015260208101905061163b565b505050509050018481038252858181518152602001915080516000925b818410156116bc5782846020026020010151600260200280838360005b838110156116ab578082015181840152602081019050611690565b505050509050019260010192611673565b925050509850505050505050505060206040518083038186803b1580156116e257600080fd5b505af41580156116f6573d6000803e3d6000fd5b505050506040513d602081101561170c57600080fd5b8101908080519060200190929190505050905080611792576040517f08c379a00000000000000000000000000000000000000000000000000000000081526004018080602001828103825260118152602001807f496e76616c6964207369676e617475726500000000000000000000000000000081525060200191505060405180910390fd5b6117ad670de0b6b3a764000086816117a657fe5b048a611ac8565b83600101819055506001600a60008781526020019081526020016000206000828254019250508190555050505050505050505050565b6000806117f9670de0b6b3a76400008402611a06565b9050600a600082815260200190815260200160002054915050919050565b61181f611cff565b6000611834670de0b6b3a76400008502611a06565b905061183e611cff565b60008090505b600581101561193857600b60008481526020019081526020016000206000868152602001908152602001600020600401600082815260200190815260200160002060006002811061189157fe5b015460001b8282600581106118a257fe5b60200201516000600281106118b357fe5b602002018181525050600b60008481526020019081526020016000206000868152602001908152602001600020600401600082815260200190815260200160002060016002811061190057fe5b015460001b82826005811061191157fe5b602002015160016002811061192257fe5b6020020181815250508080600101915050611844565b50809250505092915050565b600080600061195c670de0b6b3a76400008602611a06565b9050611966611ca5565b600b600083815260200190815260200160002060008681526020019081526020016000206040518060a00160405290816000820154815260200160018201548152602001600282015481526020016003820160009054906101000a900460ff1660ff1660ff1681526020016005820160009054906101000a900460ff1660ff1660ff16815250509050806060015181608001519350935050509250929050565b60008060008090506000670de0b6b3a7640000808681611a2257fe5b04029050600092505b600a831015611a675780600084600a8110611a4257fe5b01541415611a4f57600191505b8115611a5a57611a67565b8280600101935050611a2b565b81611abd576040517f08c379a0000000000000000000000000000000000000000000000000000000008152600401808060200182810382526031815260200180611da36031913960400191505060405180910390fd5b809350505050919050565b6000611ad2611d2d565b6000611ae7670de0b6b3a76400008602611a06565b90506000600b60008381526020019081526020016000206000868152602001908152602001600020905060008090505b60058160ff161015611b9b578160040160008260ff168152602001908152602001600020600280602002604051908101604052809291908260028015611b72576020028201915b815481526020019060010190808311611b5e575b5050505050848260ff1660058110611b8657fe5b60200201819052508080600101915050611b17565b5060606001430340826000015483600201548460030160009054906101000a900460ff1687604051602001808681526020018581526020018481526020018360ff1660ff1660f81b81526001018260056000925b81841015611c355782846020020151600260200280838360005b83811015611c24578082015181840152602081019050611c09565b505050509050019260010192611bef565b92505050955050505050506040516020818303038152906040529050808051906020012094505050505092915050565b8260028101928215611c94579160200282015b82811115611c93578251825591602001919060010190611c78565b5b509050611ca19190611d5b565b5090565b6040518060a00160405280600081526020016000801916815260200160008152602001600060ff168152602001600060ff1681525090565b6040518060400160405280600290602082028038833980820191505090505090565b6040518061014001604052806005905b611d17611d80565b815260200190600190039081611d0f5790505090565b6040518061014001604052806005905b611d45611cdd565b815260200190600190039081611d3d5790505090565b611d7d91905b80821115611d79576000816000905550600101611d61565b5090565b90565b604051806040016040528060029060208202803883398082019150509050509056fe4f6e6c79204554482076616c756573206f6620322c20342c20362c2038202e2e2e203531322061726520616c6c6f77656452696e67206e6565647320746f206d6174757265206c6f6e676572206265666f726520666f72636566756c6c7920636c6f73696e67416c6c2066756e64732066726f6d2063757272656e742052696e6720686173206265656e2077697468647261776ea165627a7a72305820b3ee0c47b777290aa95eb755bf9d16aae9984e6bb3202fba3b4e9e0fdc64854f0029",
  "source": "pragma solidity >=0.5.0 <0.6.0;\n\nimport \"./AltBn128.sol\";\nimport \"./LSAG.sol\";\n\ncontract Heiswap {\n    // Events\n    event Deposited(address, uint256 etherAmount, uint256 idx);\n\n    // Minimum number of blocks that needs to be mined\n    // before user can forcefully close the ring\n    // Each blockTime is ~15 seconds\n    // Want 86400 seconds to pass (24 hours)\n    // So 86400 / 15 = 5760 blocks, which is roughly one day\n    uint256 constant minBlockNumberToCloseRing = 5760;\n\n    // Maximum number of participants in a ring\n    uint256 constant ringMaxParticipants = 5;\n\n    struct Ring {\n        /* NOTE: Once someone signs a transaction\n                 then no one else is able to deposit\n                 money into the ring anymore\n        */\n\n        // When was thing block created\n        uint256 createdBlockNumber;\n\n        // Ring hash will be available once\n        // there is 5 participants in the ring\n        // TODO: Manually call the function \"closeRing\"\n        bytes32 ringHash;\n\n        // In a ring, everyone deposits\n        // the same amount of ETH. Otherwise\n        // the sender and receiver can be identified\n        // which defeats the whole purpose of this\n        // application\n        uint256 amountDeposited;\n\n        // Number of participants who've deposited\n        uint8 dParticipantsNo;\n        // The Public Key (stealth addresses)\n        // These are in bytes because web3.js is\n        // buggy with big int\n        mapping (uint256 => uint256[2]) publicKeys;\n\n        // Number of participants who've withdrawn\n        uint8 wParticipantsNo;\n        // Key Images of participants who have withdrawn\n        // Used to determine if a participant is trying to\n        // double withdraw\n        mapping (uint256 => uint256[2]) keyImages;\n    }\n\n    // Fixed amounts allowed to be inserted into the rings\n    uint256[10] allowedAmounts = [\n        2 ether, 4 ether, 8 ether, 16 ether, 32 ether,\n        64 ether, 128 ether, 256 ether, 512 ether\n    ];\n\n    // Mimics dynamic 'lists'\n    // allowedAmount => numberOfRings (in the current amount)\n    mapping(uint256 => uint256) ringsNo;\n\n    // allowedAmount => ringIndex => Ring\n    mapping (uint256 => mapping(uint256 => Ring)) rings;\n\n\n    function deposit(uint256[2] memory publicKey) public payable\n    {\n        // Get amount sent\n        uint256 receivedEther = floorEtherAndCheck(msg.value);\n\n        // Gets the current ring for the amounts\n        uint256 curIndex = ringsNo[receivedEther];\n        Ring storage ring = rings[receivedEther][curIndex];\n\n        if (!AltBn128.onCurve(uint256(publicKey[0]), uint256(publicKey[1]))) {\n            revert(\"Public Key no on Curve\");\n        }\n\n        // Make sure that public key (stealth address)\n        // isn't already in there\n        for (uint8 i = 0; i < ring.dParticipantsNo; i++) {\n            if (ring.publicKeys[i][0] == publicKey[0] &&\n                ring.publicKeys[i][1] == publicKey[1]) {\n                revert(\"Address already in current Ring\");\n            }\n        }\n\n        // If its a new ring\n        // set createdBlockNum size\n        if (ring.dParticipantsNo == 0) {\n            ring.createdBlockNumber = block.number - 1;\n        }\n\n        // Update ring params\n        ring.publicKeys[ring.dParticipantsNo] = publicKey;\n        ring.dParticipantsNo++;\n        ring.amountDeposited += receivedEther;\n\n        // Create new ring if current ring has exceeded number of participants\n        if (ring.dParticipantsNo >= ringMaxParticipants) {\n            // Set ringHash\n            ring.ringHash = createRingHash(receivedEther / (1 ether), curIndex);\n\n            // Add new Ring pool\n            ringsNo[receivedEther] += 1;\n        }\n\n        // Broadcast Event\n        emit Deposited(msg.sender, receivedEther, curIndex);\n    }\n\n    // User can only withdraw if the ring is closed\n    // NOTE: Convert to ether\n    // i.e. there is a ringHash\n    function withdraw(\n        address payable receiver, uint256 amountEther, uint256 index,\n        uint256 c0, uint256[2] memory keyImage, uint256[] memory s\n    ) public\n    {\n        uint i;\n        uint256 startGas = gasleft();\n\n        // Get amount sent in whole number\n        uint256 withdrawEther = floorEtherAndCheck(amountEther * 1 ether);\n\n        // Gets the current ring, given the amount and idx\n        Ring storage ring = rings[withdrawEther][index];\n\n        // If everyone has withdrawn\n        if (ring.wParticipantsNo >= ringMaxParticipants) {\n            revert(\"All funds from current Ring has been withdrawn\");\n        }\n\n        // Ring needs to be closed first\n        if (ring.ringHash == bytes32(0x00)) {\n            revert(\"Ring isn't closed\");\n        }\n\n        // Convert public key to dynamic array\n        uint256[2][] memory publicKeys = new uint256[2][](ringMaxParticipants);\n\n        for (i = 0; i < ringMaxParticipants; i++) {\n            publicKeys[i] = [\n                uint256(ring.publicKeys[uint8(i)][0]),\n                uint256(ring.publicKeys[uint8(i)][1])\n            ];\n        }\n\n        // Attempts to verify ring signature\n        bool signatureVerified = LSAG.verify(\n            abi.encodePacked(ring.ringHash), // Convert to bytes\n            c0,\n            keyImage,\n            s,\n            publicKeys\n        );\n\n        if (!signatureVerified) {\n            revert(\"Invalid signature\");\n        }\n\n        // Checks if Key Image has been used\n        // AKA No double withdraw\n        for (i = 0; i < ring.wParticipantsNo; i++) {\n            if (ring.keyImages[uint8(i)][0] == keyImage[0] &&\n                ring.keyImages[uint8(i)][1] == keyImage[1]) {\n                revert(\"Signature has been used!\");\n            }\n        }\n\n        // Otherwise adds key image to the current key image\n        // And adjusts params accordingly\n        ring.keyImages[ring.wParticipantsNo] = keyImage;\n        ring.wParticipantsNo += 1;\n\n        // Send ETH to receiver\n        // Calculate fees (1.33%) + gasUsage fees\n        uint256 gasUsed = startGas - gasleft();\n        uint256 fees = (withdrawEther / 75) + gasUsed + startGas;\n\n        // Relayer gets (1%) of the xferred value + compensated for gas usage\n        msg.sender.transfer(fees);\n\n        // Reciever then gets the remaining ETH\n        receiver.transfer(withdrawEther - fees);\n    }\n\n\n    // If enough blocks has passed, user can manually close the ring.\n    // To force fully close the ring\n    function forceCloseRing(\n        uint256 amount, uint256 index,\n        uint256 c0, uint256[2] memory keyImage, uint256[] memory s\n    ) public\n    {\n        // Get amount sent\n        uint256 receivedEther = floorEtherAndCheck(amount * 1 ether);\n\n        // Gets the current ring for the amounts\n        uint256 curIndex = ringsNo[receivedEther];\n        Ring storage ring = rings[receivedEther][curIndex];\n\n        if (ring.ringHash != bytes32(0x00)) {\n            revert(\"Ring is already closed!\");\n        }\n\n        if (block.number - 1 - ring.createdBlockNumber >= minBlockNumberToCloseRing) {\n            revert(\"Ring needs to mature longer before forcefully closing\");\n        }\n\n        // Convert public key to dynamic array\n        uint256[2][] memory publicKeys = new uint256[2][](ringMaxParticipants);\n\n        for (uint256 i = 0; i < ringMaxParticipants; i++) {\n            publicKeys[i] = [\n                uint256(ring.publicKeys[uint8(i)][0]),\n                uint256(ring.publicKeys[uint8(i)][1])\n            ];\n        }\n\n        // Attempts to verify ring signature\n        // for user to close ring\n        bool signatureVerified = LSAG.verify(\n            abi.encodePacked(\"closeRing\", receivedEther, curIndex),\n            c0,\n            keyImage,\n            s,\n            publicKeys\n        );\n\n        if (!signatureVerified) {\n            revert(\"Invalid signature\");\n        }\n\n        // Close the ring\n        // (Once ring hash is there, it means ring is closed)\n        ring.ringHash = createRingHash(receivedEther / (1 ether), index);\n\n        // Create new ring\n        ringsNo[receivedEther] += 1;\n    }\n\n    /* Helper functions */\n    // TODO: Use safemath library\n\n    // Creates ring hash (used for signing)\n    function createRingHash(uint256 amountEther, uint256 index) internal view\n        returns (bytes32)\n    {\n        uint256[2][ringMaxParticipants] memory publicKeys;\n        uint256 receivedEther = floorEtherAndCheck(amountEther * 1 ether);\n\n        Ring storage r = rings[receivedEther][index];\n\n        for (uint8 i = 0; i < ringMaxParticipants; i++) {\n            publicKeys[i] = r.publicKeys[i];\n        }\n\n        bytes memory b = abi.encodePacked(\n            blockhash(block.number - 1),\n            r.createdBlockNumber,\n            r.amountDeposited,\n            r.dParticipantsNo,\n            publicKeys\n        );\n\n        return keccak256(b);\n    }\n\n    // Gets ring hash needed to generate signature\n    function getRingHash(uint256 amountEther, uint256 index) public view\n        returns (bytes memory)\n    {\n        uint256 receivedEther = floorEtherAndCheck(amountEther * 1 ether);\n        Ring memory r = rings[receivedEther][index];\n\n        // If the ringhash hasn't been closed\n        // return the hash needed to close the\n        // ring\n        if (r.ringHash == bytes32(0x00)) {\n            return abi.encodePacked(\"closeRing\", receivedEther, index);\n        }\n\n        return abi.encodePacked(r.ringHash);\n    }\n\n    // Gets all addresses in a Ring\n    // Converting to Bytes32 cause web3.js has a bug that doesn't convert\n    // Big Num correctly....\n    function getPublicKeys(uint256 amountEther, uint256 index) public view\n        returns (bytes32[2][ringMaxParticipants] memory)\n    {\n        uint256 receivedEther = floorEtherAndCheck(amountEther * 1 ether);\n\n        bytes32[2][ringMaxParticipants] memory publicKeys;\n\n        for (uint i = 0; i < ringMaxParticipants; i++) {\n            publicKeys[i][0] = bytes32(rings[receivedEther][index].publicKeys[i][0]);\n            publicKeys[i][1] = bytes32(rings[receivedEther][index].publicKeys[i][1]);\n        }\n\n        return publicKeys;\n    }\n\n    // Gets number of participants who\n    // have deposited and withdrawn\n    // ret: (dParticipants, wParticipants)\n    function getParticipants(uint256 amountEther, uint256 index) public view\n        returns (uint8, uint8)\n    {\n        uint256 receivedEther = floorEtherAndCheck(amountEther * 1 ether);\n        Ring memory r = rings[receivedEther][index];\n\n        return (r.dParticipantsNo, r.wParticipantsNo);\n    }\n\n    // How many more blocks until we can force close\n    // Only allow force close every <x> blocks\n    // the ring (used in-case no one participates in the \"mixing\" process)\n    function getForceCloseBlocksLeft(uint256 amountEther, uint256 index) public view\n        returns (uint256)\n    {\n        uint256 receivedEther = floorEtherAndCheck(amountEther * 1 ether);\n        Ring memory r = rings[receivedEther][index];\n\n        uint256 blocksPassed = (block.number - 1 - r.createdBlockNumber);\n\n        if (blocksPassed >= minBlockNumberToCloseRing) {\n            return uint256(0);\n        }\n\n        return minBlockNumberToCloseRing - blocksPassed;\n    }\n\n    // Gets the max nunmber of ring participants\n    function getRingMaxParticipants() public pure\n        returns (uint256)\n    {\n        return ringMaxParticipants;\n    }\n\n    // Gets the current ring index\n    // for the given amount of ether\n    // Used to estimate the current idx for better UX\n    function getCurrentRingIdx(uint256 amountEther) public view\n        returns (uint256)\n    {\n        uint256 receivedEther = floorEtherAndCheck(amountEther * 1 ether);\n        return ringsNo[receivedEther];\n    }\n\n    // Floors the current ether values\n    // Makes sure the values needs to in `allowedAmounts`\n    function floorEtherAndCheck(uint256 receivedAmount) internal view\n        returns (uint256)\n    {\n        uint256 i;\n        bool allowed = false;\n\n        // Floors received ether\n        uint256 receivedEther = (receivedAmount / 1 ether) * 1 ether;\n\n        for (i = 0; i < 10; i ++) {\n            if (allowedAmounts[i] == receivedEther) {\n                allowed = true;\n            }\n            if (allowed) {\n                break;\n            }\n        }\n\n        // Revert if ETH sent isn't in the allowed fixed amounts\n        require(allowed, \"Only ETH values of 2, 4, 6, 8 ... 512 are allowed\");\n\n        return receivedEther;\n    }\n}",
  "sourcePath": "/home/kendrick/Development/Ethereum/heiswap-dapp/contracts/Heiswap.sol",
  "compiler": {
    "name": "solc",
    "version": "0.5.8+commit.23d335f2.Emscripten.clang"
  },
  "schemaVersion": "3.0.11",
  "updatedAt": "2019-06-30T22:56:01.726Z",
  "devdoc": {
    "methods": {}
  },
  "userdoc": {
    "methods": {}
  }
}