{
  "contractName": "Heiswap",
  "abi": [
    {
      "constant": true,
      "inputs": [],
      "name": "relayerAddress",
      "outputs": [
        {
          "name": "",
          "type": "address"
        }
      ],
      "payable": false,
      "stateMutability": "view",
      "type": "function"
    },
    {
      "anonymous": false,
      "inputs": [
        {
          "indexed": false,
          "name": "",
          "type": "address"
        },
        {
          "indexed": false,
          "name": "etherAmount",
          "type": "uint256"
        },
        {
          "indexed": false,
          "name": "idx",
          "type": "uint256"
        }
      ],
      "name": "Deposited",
      "type": "event"
    },
    {
      "constant": false,
      "inputs": [
        {
          "name": "publicKey",
          "type": "uint256[2]"
        }
      ],
      "name": "deposit",
      "outputs": [],
      "payable": true,
      "stateMutability": "payable",
      "type": "function"
    },
    {
      "constant": false,
      "inputs": [
        {
          "name": "receiver",
          "type": "address"
        },
        {
          "name": "amountEther",
          "type": "uint256"
        },
        {
          "name": "index",
          "type": "uint256"
        },
        {
          "name": "c0",
          "type": "uint256"
        },
        {
          "name": "_keyImage",
          "type": "uint256[2]"
        },
        {
          "name": "s",
          "type": "uint256[]"
        }
      ],
      "name": "withdraw",
      "outputs": [],
      "payable": false,
      "stateMutability": "nonpayable",
      "type": "function"
    },
    {
      "constant": true,
      "inputs": [
        {
          "name": "amountEther",
          "type": "uint256"
        },
        {
          "name": "index",
          "type": "uint256"
        }
      ],
      "name": "getRingHash",
      "outputs": [
        {
          "name": "",
          "type": "bytes"
        }
      ],
      "payable": false,
      "stateMutability": "view",
      "type": "function"
    },
    {
      "constant": true,
      "inputs": [
        {
          "name": "amountEther",
          "type": "uint256"
        },
        {
          "name": "index",
          "type": "uint256"
        }
      ],
      "name": "getPublicKeys",
      "outputs": [
        {
          "name": "",
          "type": "bytes32[2][6]"
        }
      ],
      "payable": false,
      "stateMutability": "view",
      "type": "function"
    },
    {
      "constant": true,
      "inputs": [
        {
          "name": "amountEther",
          "type": "uint256"
        },
        {
          "name": "index",
          "type": "uint256"
        }
      ],
      "name": "getParticipants",
      "outputs": [
        {
          "name": "",
          "type": "uint8"
        },
        {
          "name": "",
          "type": "uint8"
        }
      ],
      "payable": false,
      "stateMutability": "view",
      "type": "function"
    },
    {
      "constant": true,
      "inputs": [],
      "name": "getRingMaxParticipants",
      "outputs": [
        {
          "name": "",
          "type": "uint256"
        }
      ],
      "payable": false,
      "stateMutability": "pure",
      "type": "function"
    },
    {
      "constant": true,
      "inputs": [
        {
          "name": "amountEther",
          "type": "uint256"
        }
      ],
      "name": "getCurrentRingIdx",
      "outputs": [
        {
          "name": "",
          "type": "uint256"
        }
      ],
      "payable": false,
      "stateMutability": "view",
      "type": "function"
    }
  ],
  "bytecode": "0x60806040527320a4b066fc4f70b0245b43e2f5a781c6d10307486000806101000a81548173ffffffffffffffffffffffffffffffffffffffff021916908373ffffffffffffffffffffffffffffffffffffffff1602179055506040518060e00160405280670de0b6b3a764000068ffffffffffffffffff168152602001671bc16d674ec8000068ffffffffffffffffff168152602001673782dace9d90000068ffffffffffffffffff168152602001676f05b59d3b20000068ffffffffffffffffff16815260200167de0b6b3a7640000068ffffffffffffffffff1681526020016801bc16d674ec80000068ffffffffffffffffff1681526020016803782dace9d900000068ffffffffffffffffff1681525060019060076200012492919062000139565b503480156200013257600080fd5b50620001b3565b82600a810192821562000178579160200282015b8281111562000177578251829068ffffffffffffffffff169055916020019190600101906200014d565b5b5090506200018791906200018b565b5090565b620001b091905b80821115620001ac57600081600090555060010162000192565b5090565b90565b611abd80620001c36000396000f3fe60806040526004361061007b5760003560e01c80639f1961e61161004e5780639f1961e6146102ab578063c0c4cbbd14610369578063d5fce735146103b8578063ded0ed161461045c5761007b565b8063143ad3561461008057806318a7cca8146100e5578063622304981461013c5780637c0ffaa214610280575b600080fd5b6100e36004803603604081101561009657600080fd5b8101908080604001906002806020026040519081016040528092919082600260200280828437600081840152601f19601f82011690508083019250505050505091929192905050506104c8565b005b3480156100f157600080fd5b506100fa6109d4565b604051808273ffffffffffffffffffffffffffffffffffffffff1673ffffffffffffffffffffffffffffffffffffffff16815260200191505060405180910390f35b34801561014857600080fd5b5061027e600480360360e081101561015f57600080fd5b81019080803573ffffffffffffffffffffffffffffffffffffffff16906020019092919080359060200190929190803590602001909291908035906020019092919080604001906002806020026040519081016040528092919082600260200280828437600081840152601f19601f8201169050808301925050505050509192919290803590602001906401000000008111156101fb57600080fd5b82018360208201111561020d57600080fd5b8035906020019184602083028401116401000000008311171561022f57600080fd5b919080806020026020016040519081016040528093929190818152602001838360200280828437600081840152601f19601f8201169050808301925050505050505091929192905050506109f9565b005b34801561028c57600080fd5b50610295611305565b6040518082815260200191505060405180910390f35b3480156102b757600080fd5b506102ee600480360360408110156102ce57600080fd5b81019080803590602001909291908035906020019092919050505061130e565b6040518080602001828103825283818151815260200191508051906020019080838360005b8381101561032e578082015181840152602081019050610313565b50505050905090810190601f16801561035b5780820380516001836020036101000a031916815260200191505b509250505060405180910390f35b34801561037557600080fd5b506103a26004803603602081101561038c57600080fd5b810190808035906020019092919050505061144f565b6040518082815260200191505060405180910390f35b3480156103c457600080fd5b506103fb600480360360408110156103db57600080fd5b810190808035906020019092919080359060200190929190505050611483565b604051808260066000925b8184101561044c5782846020020151600260200280838360005b8381101561043b578082015181840152602081019050610420565b505050509050019260010192610406565b9250505091505060405180910390f35b34801561046857600080fd5b5061049f6004803603604081101561047f57600080fd5b8101908080359060200190929190803590602001909291905050506115b0565b604051808360ff1660ff1681526020018260ff1660ff1681526020019250505060405180910390f35b60006104d334611672565b90506000600a67016345785d8a000034816104ea57fe5b04816104f257fe5b06905060018111156105c957600067016345785d8a0000600183030290506000809054906101000a900473ffffffffffffffffffffffffffffffffffffffff1673ffffffffffffffffffffffffffffffffffffffff166108fc67016345785d8a00009081150290604051600060405180830381858888f1935050505015801561057f573d6000803e3d6000fd5b503373ffffffffffffffffffffffffffffffffffffffff166108fc829081150290604051600060405180830381858888f193505050501580156105c6573d6000803e3d6000fd5b50505b6000600b60008481526020019081526020016000205490506000600c60008581526020019081526020016000206000838152602001908152602001600020905073__AltBn128______________________________63669d94488660006002811061063057fe5b60200201518760016002811061064257fe5b60200201516040518363ffffffff1660e01b8152600401808381526020018281526020019250505060206040518083038186803b15801561068257600080fd5b505af4158015610696573d6000803e3d6000fd5b505050506040513d60208110156106ac57600080fd5b810190808051906020019092919050505061072f576040517f08c379a00000000000000000000000000000000000000000000000000000000081526004018080602001828103825260168152602001807f5075626c6963204b6579206e6f206f6e2043757276650000000000000000000081525060200191505060405180910390fd5b60008090505b8160030160009054906101000a900460ff1660ff168160ff16101561084e578560006002811061076157fe5b60200201518260040160008360ff16815260200190815260200160002060006002811061078a57fe5b01541480156107ce5750856001600281106107a157fe5b60200201518260040160008360ff1681526020019081526020016000206001600281106107ca57fe5b0154145b15610841576040517f08c379a000000000000000000000000000000000000000000000000000000000815260040180806020018281038252601f8152602001807f4164647265737320616c726561647920696e2063757272656e742052696e670081525060200191505060405180910390fd5b8080600101915050610735565b5060008160030160009054906101000a900460ff1660ff161415610879576001430381600001819055505b848160040160008360030160009054906101000a900460ff1660ff1681526020019081526020016000209060026108b19291906118d1565b5080600301600081819054906101000a900460ff168092919060010191906101000a81548160ff021916908360ff1602179055505083816002016000828254019250508190555060068160030160009054906101000a900460ff1660ff161061095a5761092f670de0b6b3a7640000858161092857fe5b0483611734565b81600101819055506001600b6000868152602001908152602001600020600082825401925050819055505b7f73a19dd210f1a7f902193214c0ee91dd35ee5b4d920cba8d519eca65a7b488ca338584604051808473ffffffffffffffffffffffffffffffffffffffff1673ffffffffffffffffffffffffffffffffffffffff168152602001838152602001828152602001935050505060405180910390a15050505050565b6000809054906101000a900473ffffffffffffffffffffffffffffffffffffffff1681565b6000805a9050610a07611911565b604051806040016040528073__AltBn128______________________________63171f304288600060028110610a3957fe5b60200201516040518263ffffffff1660e01b81526004018082815260200191505060206040518083038186803b158015610a7257600080fd5b505af4158015610a86573d6000803e3d6000fd5b505050506040513d6020811015610a9c57600080fd5b8101908080519060200190929190505050815260200173__AltBn128______________________________63171f304288600160028110610ad957fe5b60200201516040518263ffffffff1660e01b81526004018082815260200191505060206040518083038186803b158015610b1257600080fd5b505af4158015610b26573d6000803e3d6000fd5b505050506040513d6020811015610b3c57600080fd5b810190808051906020019092919050505081525090506000610b67670de0b6b3a76400008a02611672565b90506000600c600083815260200190815260200160002060008a81526020019081526020016000209050600073ffffffffffffffffffffffffffffffffffffffff168b73ffffffffffffffffffffffffffffffffffffffff161415610c34576040517f08c379a00000000000000000000000000000000000000000000000000000000081526004018080602001828103825260188152602001807f4e6f207a65726f2061646472657373207265636569766572000000000000000081525060200191505060405180910390fd5b60068160050160009054906101000a900460ff1660ff1610610ca1576040517f08c379a000000000000000000000000000000000000000000000000000000000815260040180806020018281038252602e815260200180611a64602e913960400191505060405180910390fd5b6000801b81600101541415610d1e576040517f08c379a00000000000000000000000000000000000000000000000000000000081526004018080602001828103825260118152602001807f52696e672069736e277420636c6f73656400000000000000000000000000000081525060200191505060405180910390fd5b60608160030160009054906101000a900460ff1660ff16604051908082528060200260200182016040528015610d6e57816020015b610d5b611933565b815260200190600190039081610d535790505b509050600095505b8160030160009054906101000a900460ff1660ff16861015610e155760405180604001604052808360040160008960ff168152602001908152602001600020600060028110610dc157fe5b015481526020018360040160008960ff168152602001908152602001600020600160028110610dec57fe5b0154815250818781518110610dfd57fe5b60200260200101819052508580600101965050610d76565b600073__LSAG__________________________________63fe46a2b284600101548f604051602001808381526020018273ffffffffffffffffffffffffffffffffffffffff1673ffffffffffffffffffffffffffffffffffffffff1660601b8152601401925050506040516020818303038152906040528c888c876040518663ffffffff1660e01b8152600401808060200186815260200185600260200280838360005b83811015610ed4578082015181840152602081019050610eb9565b505050509050018060200180602001848103845289818151815260200191508051906020019080838360005b83811015610f1b578082015181840152602081019050610f00565b50505050905090810190601f168015610f485780820380516001836020036101000a031916815260200191505b50848103835286818151815260200191508051906020019060200280838360005b83811015610f84578082015181840152602081019050610f69565b505050509050018481038252858181518152602001915080516000925b81841015610fea5782846020026020010151600260200280838360005b83811015610fd9578082015181840152602081019050610fbe565b505050509050019260010192610fa1565b925050509850505050505050505060206040518083038186803b15801561101057600080fd5b505af4158015611024573d6000803e3d6000fd5b505050506040513d602081101561103a57600080fd5b81019080805190602001909291905050509050806110c0576040517f08c379a00000000000000000000000000000000000000000000000000000000081526004018080602001828103825260118152602001807f496e76616c6964207369676e617475726500000000000000000000000000000081525060200191505060405180910390fd5b600096505b8260050160009054906101000a900460ff1660ff168710156111db57846000600281106110ee57fe5b60200201518360060160008960ff16815260200190815260200160002060006002811061111757fe5b015414801561115b57508460016002811061112e57fe5b60200201518360060160008960ff16815260200190815260200160002060016002811061115757fe5b0154145b156111ce576040517f08c379a00000000000000000000000000000000000000000000000000000000081526004018080602001828103825260188152602001807f5369676e617475726520686173206265656e207573656421000000000000000081525060200191505060405180910390fd5b86806001019750506110c5565b848360060160008560050160009054906101000a900460ff1660ff1681526020019081526020016000209060026112139291906118d1565b5060018360050160008282829054906101000a900460ff160192506101000a81548160ff021916908360ff16021790555060003a5a88030290506000604b868161125957fe5b049050600081830190503373ffffffffffffffffffffffffffffffffffffffff166108fc829081150290604051600060405180830381858888f193505050501580156112a9573d6000803e3d6000fd5b508f73ffffffffffffffffffffffffffffffffffffffff166108fc8289039081150290604051600060405180830381858888f193505050501580156112f2573d6000803e3d6000fd5b5050505050505050505050505050505050565b60006006905090565b60606000611325670de0b6b3a76400008502611672565b905061132f611955565b600c600083815260200190815260200160002060008581526020019081526020016000206040518060a00160405290816000820154815260200160018201548152602001600282015481526020016003820160009054906101000a900460ff1660ff1660ff1681526020016005820160009054906101000a900460ff1660ff1660ff168152505090506000801b8160200151141561142057818460405160200180807f636c6f736552696e6700000000000000000000000000000000000000000000008152506009018381526020018281526020019250505060405160208183030381529060405292505050611449565b806020015160405160200180828152602001915050604051602081830303815290604052925050505b92915050565b600080611465670de0b6b3a76400008402611672565b9050600b600082815260200190815260200160002054915050919050565b61148b61198d565b60006114a0670de0b6b3a76400008502611672565b90506114aa61198d565b60008090505b60068110156115a457600c6000848152602001908152602001600020600086815260200190815260200160002060040160008281526020019081526020016000206000600281106114fd57fe5b015460001b82826006811061150e57fe5b602002015160006002811061151f57fe5b602002018181525050600c60008481526020019081526020016000206000868152602001908152602001600020600401600082815260200190815260200160002060016002811061156c57fe5b015460001b82826006811061157d57fe5b602002015160016002811061158e57fe5b60200201818152505080806001019150506114b0565b50809250505092915050565b60008060006115c8670de0b6b3a76400008602611672565b90506115d2611955565b600c600083815260200190815260200160002060008681526020019081526020016000206040518060a00160405290816000820154815260200160018201548152602001600282015481526020016003820160009054906101000a900460ff1660ff1660ff1681526020016005820160009054906101000a900460ff1660ff1660ff16815250509050806060015181608001519350935050509250929050565b60008060008090506000670de0b6b3a764000080868161168e57fe5b04029050600092505b600a8310156116d35780600184600a81106116ae57fe5b015414156116bb57600191505b81156116c6576116d3565b8280600101935050611697565b81611729576040517f08c379a0000000000000000000000000000000000000000000000000000000008152600401808060200182810382526033815260200180611a316033913960400191505060405180910390fd5b809350505050919050565b600061173e6119bb565b6000611753670de0b6b3a76400008602611672565b90506000600c60008381526020019081526020016000206000868152602001908152602001600020905060008090505b60068160ff161015611807578160040160008260ff1681526020019081526020016000206002806020026040519081016040528092919082600280156117de576020028201915b8154815260200190600101908083116117ca575b5050505050848260ff16600681106117f257fe5b60200201819052508080600101915050611783565b5060606001430340826000015483600201548460030160009054906101000a900460ff1687604051602001808681526020018581526020018481526020018360ff1660ff1660f81b81526001018260066000925b818410156118a15782846020020151600260200280838360005b83811015611890578082015181840152602081019050611875565b50505050905001926001019261185b565b92505050955050505050506040516020818303038152906040529050808051906020012094505050505092915050565b8260028101928215611900579160200282015b828111156118ff5782518255916020019190600101906118e4565b5b50905061190d91906119e9565b5090565b6040518060400160405280600290602082028038833980820191505090505090565b6040518060400160405280600290602082028038833980820191505090505090565b6040518060a00160405280600081526020016000801916815260200160008152602001600060ff168152602001600060ff1681525090565b6040518061018001604052806006905b6119a5611a0e565b81526020019060019003908161199d5790505090565b6040518061018001604052806006905b6119d3611933565b8152602001906001900390816119cb5790505090565b611a0b91905b80821115611a075760008160009055506001016119ef565b5090565b90565b604051806040016040528060029060208202803883398082019150509050509056fe4f6e6c79204554482076616c756573206f6620312c20322c20342c20362c2038202e2e2e2033322061726520616c6c6f776564416c6c2066756e64732066726f6d2063757272656e742052696e6720686173206265656e2077697468647261776ea165627a7a723058209725a17ccf5383a8bf7490eb0ea21bfd62975bfaeeb05bec129a2d873a6899fa0029",
  "source": "pragma solidity >=0.5.0 <0.6.0;\n\nimport \"./AltBn128.sol\";\nimport \"./LSAG.sol\";\n\ncontract Heiswap {\n    // Events\n    event Deposited(address, uint256 etherAmount, uint256 idx);\n\n    // Default Relayer Address\n    address payable public relayerAddress = 0x20a4b066fc4F70b0245B43e2F5a781C6d1030748;\n\n    // Maximum number of participants in a ring\n    uint256 constant ringMaxParticipants = 6;\n    \n    struct Ring {\n        // Ring created on block number X\n        uint256 createdBlockNumber;\n\n        // Ring hash will be available once\n        // there is 5 participants in the ring\n        // TODO: Manually call the function \"closeRing\"\n        bytes32 ringHash;\n\n        // In a ring, everyone deposits\n        // the same amount of ETH. Otherwise\n        // the sender and receiver can be identified\n        // which defeats the whole purpose of this\n        // application\n        uint256 amountDeposited;\n\n        // Number of participants who've deposited\n        uint8 dParticipantsNo;\n\n        // The Public Key (stealth addresses)\n        mapping (uint256 => uint256[2]) publicKeys;\n\n        // Number of participants who've withdrawn\n        uint8 wParticipantsNo;\n\n        // Key Images of participants who have withdrawn\n        // Used to determine if a participant is trying to\n        // double withdraw\n        mapping (uint256 => uint256[2]) keyImages;\n    }\n\n    // Fixed amounts allowed to be inserted into the rings\n    uint256[10] allowedAmounts = [ 1 ether, 2 ether, 4 ether, 8 ether, 16 ether, 32 ether, 64 ether ];\n\n    // Mimics dynamic 'lists'\n    // allowedAmount => numberOfRings (in the current amount)\n    mapping(uint256 => uint256) ringsNo;\n\n    // allowedAmount => ringIndex => Ring\n    mapping (uint256 => mapping(uint256 => Ring)) rings;\n\n    function deposit(uint256[2] memory publicKey) public payable\n    {\n        // Get amount sent\n        uint256 receivedEther = floorEtherAndCheck(msg.value);\n\n        // Returns non-exact value ETH\n        // Gets the value of the first decimal place\n        // in ETH deposited\n        // i.e. 2.1 will give 1, 2.6 will give 6\n        // if it's greater than 1, then refund the \n        // amounts (we'll count 0.1 ETH as a donation to our relayer ;))\n        uint256 etherDecimalVal = (msg.value / (1 ether / 10)) % 10;\n        if (etherDecimalVal > 1) {\n            uint256 refundEtherDecimalVal = (etherDecimalVal - 1) * (1 ether / 10);\n            relayerAddress.transfer(1 ether / 10);\n            msg.sender.transfer(refundEtherDecimalVal);\n        }\n\n        // Gets the current ring for the amounts\n        uint256 curIndex = ringsNo[receivedEther];\n        Ring storage ring = rings[receivedEther][curIndex];\n\n        if (!AltBn128.onCurve(uint256(publicKey[0]), uint256(publicKey[1]))) {\n            revert(\"Public Key no on Curve\");\n        }\n\n        // Make sure that public key (stealth address)\n        // isn't already in there\n        for (uint8 i = 0; i < ring.dParticipantsNo; i++) {\n            if (ring.publicKeys[i][0] == publicKey[0] &&\n                ring.publicKeys[i][1] == publicKey[1]) {\n                revert(\"Address already in current Ring\");\n            }\n        }\n\n        // If its a new ring\n        // set createdBlockNum size\n        if (ring.dParticipantsNo == 0) {\n            ring.createdBlockNumber = block.number - 1;\n        }\n\n        // Update ring params\n        ring.publicKeys[ring.dParticipantsNo] = publicKey;\n        ring.dParticipantsNo++;\n        ring.amountDeposited += receivedEther;\n\n        // Create new ring if current ring has exceeded number of participants\n        if (ring.dParticipantsNo >= ringMaxParticipants) {\n            // Set ringHash\n            ring.ringHash = createRingHash(receivedEther / (1 ether), curIndex);\n\n            // Add new Ring pool\n            ringsNo[receivedEther] += 1;\n        }\n\n        // Broadcast Event\n        emit Deposited(msg.sender, receivedEther, curIndex);\n    }\n\n    // User can only withdraw if the ring is closed\n    // NOTE: Convert to ether\n    // i.e. there is a ringHash\n    function withdraw(\n        address payable receiver, uint256 amountEther, uint256 index,\n        uint256 c0, uint256[2] memory _keyImage, uint256[] memory s\n    ) public\n    {\n        uint i;\n        uint256 startGas = gasleft();\n\n        // Prevent double spend attack\n        // https://github.com/kendricktan/heiswap-dapp/issues/17\n        uint256[2] memory keyImage = [\n            AltBn128.modp(_keyImage[0]),\n            AltBn128.modp(_keyImage[1])\n        ];\n\n        // Get amount sent in whole number\n        uint256 withdrawEther = floorEtherAndCheck(amountEther * 1 ether);\n\n        // Gets the current ring, given the amount and idx\n        Ring storage ring = rings[withdrawEther][index];\n\n        if (receiver == 0x0000000000000000000000000000000000000000) {\n            revert(\"No zero address receiver\");\n        }\n\n        // If everyone has withdrawn\n        if (ring.wParticipantsNo >= ringMaxParticipants) {\n            revert(\"All funds from current Ring has been withdrawn\");\n        }\n\n        // Ring needs to be closed first\n        if (ring.ringHash == bytes32(0x00)) {\n            revert(\"Ring isn't closed\");\n        }\n\n        // Convert public key to dynamic array\n        // Based on number of people who have\n        // deposited\n        uint256[2][] memory publicKeys = new uint256[2][](ring.dParticipantsNo);\n\n        for (i = 0; i < ring.dParticipantsNo; i++) {\n            publicKeys[i] = [\n                uint256(ring.publicKeys[uint8(i)][0]),\n                uint256(ring.publicKeys[uint8(i)][1])\n            ];\n        }\n\n        // Attempts to verify ring signature\n        bool signatureVerified = LSAG.verify(\n            abi.encodePacked(ring.ringHash, receiver), // Convert to bytes\n            c0,\n            keyImage,\n            s,\n            publicKeys\n        );\n\n        if (!signatureVerified) {\n            revert(\"Invalid signature\");\n        }\n\n        // Checks if Key Image has been used\n        // AKA No double withdraw\n        for (i = 0; i < ring.wParticipantsNo; i++) {\n            if (ring.keyImages[uint8(i)][0] == keyImage[0] &&\n                ring.keyImages[uint8(i)][1] == keyImage[1]) {\n                revert(\"Signature has been used!\");\n            }\n        }\n\n        // Otherwise adds key image to the current key image\n        // And adjusts params accordingly\n        ring.keyImages[ring.wParticipantsNo] = keyImage;\n        ring.wParticipantsNo += 1;\n\n        // Send ETH to receiver\n        // Calculate gasUsage fees\n        uint256 gasUsed = (startGas - gasleft()) * tx.gasprice;\n\n        // Calculate relayer fees (1.33%)\n        uint256 relayerFees = (withdrawEther / 75);\n\n        // Total fees\n        uint256 fees = gasUsed + relayerFees;\n\n        // Relayer gets compensated\n        msg.sender.transfer(fees);\n\n        // Reciever then gets the remaining ETH\n        receiver.transfer(withdrawEther - fees);\n    }\n\n    /* Helper functions */\n    // TODO: Use safemath library\n\n    // Creates ring hash (used for signing)\n    function createRingHash(uint256 amountEther, uint256 index) internal view\n        returns (bytes32)\n    {\n        uint256[2][ringMaxParticipants] memory publicKeys;\n        uint256 receivedEther = floorEtherAndCheck(amountEther * 1 ether);\n\n        Ring storage r = rings[receivedEther][index];\n\n        for (uint8 i = 0; i < ringMaxParticipants; i++) {\n            publicKeys[i] = r.publicKeys[i];\n        }\n\n        bytes memory b = abi.encodePacked(\n            blockhash(block.number - 1),\n            r.createdBlockNumber,\n            r.amountDeposited,\n            r.dParticipantsNo,\n            publicKeys\n        );\n\n        return keccak256(b);\n    }\n\n    // Gets ring hash needed to generate signature\n    function getRingHash(uint256 amountEther, uint256 index) public view\n        returns (bytes memory)\n    {\n        uint256 receivedEther = floorEtherAndCheck(amountEther * 1 ether);\n        Ring memory r = rings[receivedEther][index];\n\n        // If the ringhash hasn't been closed\n        // return the hash needed to close the\n        // ring\n        if (r.ringHash == bytes32(0x00)) {\n            return abi.encodePacked(\"closeRing\", receivedEther, index);\n        }\n\n        return abi.encodePacked(r.ringHash);\n    }\n\n    // Gets all addresses in a Ring\n    // Converting to Bytes32 cause web3.js has a bug that doesn't convert\n    // BigNum correctly....\n    function getPublicKeys(uint256 amountEther, uint256 index) public view\n        returns (bytes32[2][ringMaxParticipants] memory)\n    {\n        uint256 receivedEther = floorEtherAndCheck(amountEther * 1 ether);\n\n        bytes32[2][ringMaxParticipants] memory publicKeys;\n\n        for (uint i = 0; i < ringMaxParticipants; i++) {\n            publicKeys[i][0] = bytes32(rings[receivedEther][index].publicKeys[i][0]);\n            publicKeys[i][1] = bytes32(rings[receivedEther][index].publicKeys[i][1]);\n        }\n\n        return publicKeys;\n    }\n\n    // Gets number of participants who\n    // have deposited and withdrawn\n    // ret: (dParticipants, wParticipants)\n    function getParticipants(uint256 amountEther, uint256 index) public view\n        returns (uint8, uint8)\n    {\n        uint256 receivedEther = floorEtherAndCheck(amountEther * 1 ether);\n        Ring memory r = rings[receivedEther][index];\n\n        return (r.dParticipantsNo, r.wParticipantsNo);\n    }\n\n    // Gets the max nunmber of ring participants\n    function getRingMaxParticipants() public pure\n        returns (uint256)\n    {\n        return ringMaxParticipants;\n    }\n\n    // Gets the current ring index\n    // for the given amount of ether\n    // Used to estimate the current idx for better UX\n    function getCurrentRingIdx(uint256 amountEther) public view\n        returns (uint256)\n    {\n        uint256 receivedEther = floorEtherAndCheck(amountEther * 1 ether);\n        return ringsNo[receivedEther];\n    }\n\n    // Floors the current ether values\n    // Makes sure the values needs to in `allowedAmounts`\n    function floorEtherAndCheck(uint256 receivedAmount) internal view\n        returns (uint256)\n    {\n        uint256 i;\n        bool allowed = false;\n\n        // Floors received ether\n        uint256 receivedEther = (receivedAmount / 1 ether) * 1 ether;\n\n        for (i = 0; i < 10; i ++) {\n            if (allowedAmounts[i] == receivedEther) {\n                allowed = true;\n            }\n            if (allowed) {\n                break;\n            }\n        }\n\n        // Revert if ETH sent isn't in the allowed fixed amounts\n        require(allowed, \"Only ETH values of 1, 2, 4, 6, 8 ... 32 are allowed\");\n\n        return receivedEther;\n    }\n}",
  "sourcePath": "/home/kendrick/Development/Ethereum/heiswap-dapp/contracts/Heiswap.sol",
  "compiler": {
    "name": "solc",
    "version": "0.5.8+commit.23d335f2.Emscripten.clang"
  },
  "schemaVersion": "3.0.11",
  "updatedAt": "2019-07-26T12:42:40.585Z",
  "devdoc": {
    "methods": {}
  },
  "userdoc": {
    "methods": {}
  }
}